{"abi":[{"type":"constructor","inputs":[{"name":"proxy","type":"address","internalType":"contract FiatTokenProxy"},{"name":"implementation","type":"address","internalType":"contract FiatTokenV2"},{"name":"newProxyAdmin","type":"address","internalType":"address"},{"name":"newName","type":"string","internalType":"string"}],"stateMutability":"nonpayable"},{"type":"function","name":"abortUpgrade","inputs":[],"outputs":[],"stateMutability":"nonpayable"},{"type":"function","name":"helper","inputs":[],"outputs":[{"name":"","type":"address","internalType":"address"}],"stateMutability":"view"},{"type":"function","name":"implementation","inputs":[],"outputs":[{"name":"","type":"address","internalType":"address"}],"stateMutability":"view"},{"type":"function","name":"newName","inputs":[],"outputs":[{"name":"","type":"string","internalType":"string"}],"stateMutability":"view"},{"type":"function","name":"newProxyAdmin","inputs":[],"outputs":[{"name":"","type":"address","internalType":"address"}],"stateMutability":"view"},{"type":"function","name":"owner","inputs":[],"outputs":[{"name":"","type":"address","internalType":"address"}],"stateMutability":"view"},{"type":"function","name":"proxy","inputs":[],"outputs":[{"name":"","type":"address","internalType":"address"}],"stateMutability":"view"},{"type":"function","name":"transferOwnership","inputs":[{"name":"newOwner","type":"address","internalType":"address"}],"outputs":[],"stateMutability":"nonpayable"},{"type":"function","name":"upgrade","inputs":[],"outputs":[],"stateMutability":"nonpayable"},{"type":"function","name":"withdrawFiatToken","inputs":[],"outputs":[],"stateMutability":"nonpayable"},{"type":"event","name":"OwnershipTransferred","inputs":[{"name":"previousOwner","type":"address","indexed":false,"internalType":"address"},{"name":"newOwner","type":"address","indexed":false,"internalType":"address"}],"anonymous":false}],"bytecode":{"object":"0x60806040523480156200001157600080fd5b50604051620032b1380380620032b1833981810160405260808110156200003757600080fd5b8151602083015160408085015160608601805192519496939591949391820192846401000000008211156200006b57600080fd5b9083019060208201858111156200008157600080fd5b82516401000000008111828201881017156200009c57600080fd5b82525081516020918201929091019080838360005b83811015620000cb578181015183820152602001620000b1565b50505050905090810190601f168015620000f95780820380516001836020036101000a031916815260200191505b506040525050508383836200011433620001d060201b60201c565b600180546001600160a01b039485166001600160a01b031991821617909155600280549385169382169390931790925560038054919093169116179055805162000166906005906020840190620001f2565b5083604051620001769062000277565b6001600160a01b03909116815260405190819003602001906000f080158015620001a4573d6000803e3d6000fd5b50600480546001600160a01b0319166001600160a01b0392909216919091179055506200029c92505050565b600080546001600160a01b0319166001600160a01b0392909216919091179055565b828054600181600116156101000203166002900490600052602060002090601f016020900481019282601f106200023557805160ff191683800117855562000265565b8280016001018555821562000265579182015b828111156200026557825182559160200191906001019062000248565b506200027392915062000285565b5090565b610c16806200269b83390190565b5b8082111562000273576000815560010162000286565b6123ef80620002ac6000396000f3fe608060405234801561001057600080fd5b50600436106100be5760003560e01c80638da5cb5b11610076578063d8f6a8f61161005b578063d8f6a8f61461019b578063ec556889146101a3578063f2fde38b146101ab576100be565b80638da5cb5b1461018b578063d55ec69714610193576100be565b80635c60da1b116100a75780635c60da1b146100fe57806363b0e66a1461010657806364b785701461010e576100be565b80632d4efffe146100c35780633f247fe7146100f4575b600080fd5b6100cb6101de565b6040805173ffffffffffffffffffffffffffffffffffffffff9092168252519081900360200190f35b6100fc6101fa565b005b6100cb61043a565b6100cb610456565b610116610472565b6040805160208082528351818301528351919283929083019185019080838360005b83811015610150578181015183820152602001610138565b50505050905090810190601f16801561017d5780820380516001836020036101000a031916815260200191505b509250505060405180910390f35b6100cb610526565b6100fc610542565b6100fc611efa565b6100cb612019565b6100fc600480360360208110156101c157600080fd5b503573ffffffffffffffffffffffffffffffffffffffff16612035565b60035473ffffffffffffffffffffffffffffffffffffffff1690565b60005473ffffffffffffffffffffffffffffffffffffffff16331461028057604080517f08c379a000000000000000000000000000000000000000000000000000000000815260206004820181905260248201527f4f776e61626c653a2063616c6c6572206973206e6f7420746865206f776e6572604482015290519081900360640190fd5b600154604080517f70a08231000000000000000000000000000000000000000000000000000000008152306004820152905173ffffffffffffffffffffffffffffffffffffffff9092169160009183916370a0823191602480820192602092909190829003018186803b1580156102f657600080fd5b505afa15801561030a573d6000803e3d6000fd5b505050506040513d602081101561032057600080fd5b50519050801561043657604080517fa9059cbb00000000000000000000000000000000000000000000000000000000815233600482015260248101839052905173ffffffffffffffffffffffffffffffffffffffff84169163a9059cbb9160448083019260209291908290030181600087803b15801561039f57600080fd5b505af11580156103b3573d6000803e3d6000fd5b505050506040513d60208110156103c957600080fd5b505161043657604080517f08c379a000000000000000000000000000000000000000000000000000000000815260206004820152601c60248201527f4661696c656420746f2077697468647261772046696174546f6b656e00000000604482015290519081900360640190fd5b5050565b60025473ffffffffffffffffffffffffffffffffffffffff1690565b60045473ffffffffffffffffffffffffffffffffffffffff1690565b60058054604080516020601f60027fffffffffffffffffffffffffffffffffffffffffffffffffffffffffffffffff61010060018816150201909516949094049384018190048102820181019092528281526060939092909183018282801561051c5780601f106104f15761010080835404028352916020019161051c565b820191906000526020600020905b8154815290600101906020018083116104ff57829003601f168201915b5050505050905090565b60005473ffffffffffffffffffffffffffffffffffffffff1690565b60005473ffffffffffffffffffffffffffffffffffffffff1633146105c857604080517f08c379a000000000000000000000000000000000000000000000000000000000815260206004820181905260248201527f4f776e61626c653a2063616c6c6572206973206e6f7420746865206f776e6572604482015290519081900360640190fd5b60048054604080517f70a0823100000000000000000000000000000000000000000000000000000000815230938101939093525173ffffffffffffffffffffffffffffffffffffffff9091169160009183916370a08231916024808301926020929190829003018186803b15801561063f57600080fd5b505afa158015610653573d6000803e3d6000fd5b505050506040513d602081101561066957600080fd5b5051905062030d408110156106df57604080517f08c379a000000000000000000000000000000000000000000000000000000000815260206004820181905260248201527f563255706772616465723a20302e322046696174546f6b656e206e6565646564604482015290519081900360640190fd5b60008273ffffffffffffffffffffffffffffffffffffffff166370a08231336040518263ffffffff1660e01b8152600401808273ffffffffffffffffffffffffffffffffffffffff16815260200191505060206040518083038186803b15801561074857600080fd5b505afa15801561075c573d6000803e3d6000fd5b505050506040513d602081101561077257600080fd5b5051604080517f95d89b41000000000000000000000000000000000000000000000000000000008152905191925060609173ffffffffffffffffffffffffffffffffffffffff8616916395d89b41916004808301926000929190829003018186803b1580156107e057600080fd5b505afa1580156107f4573d6000803e3d6000fd5b505050506040513d6000823e601f3d9081017fffffffffffffffffffffffffffffffffffffffffffffffffffffffffffffffe0168201604052602081101561083b57600080fd5b810190808051604051939291908464010000000082111561085b57600080fd5b90830190602082018581111561087057600080fd5b825164010000000081118282018810171561088a57600080fd5b82525081516020918201929091019080838360005b838110156108b757818101518382015260200161089f565b50505050905090810190601f1680156108e45780820380516001836020036101000a031916815260200191505b50604052505050905060008473ffffffffffffffffffffffffffffffffffffffff1663313ce5676040518163ffffffff1660e01b815260040160206040518083038186803b15801561093557600080fd5b505afa158015610949573d6000803e3d6000fd5b505050506040513d602081101561095f57600080fd5b5051604080517fe5a6b10f000000000000000000000000000000000000000000000000000000008152905191925060609173ffffffffffffffffffffffffffffffffffffffff88169163e5a6b10f916004808301926000929190829003018186803b1580156109cd57600080fd5b505afa1580156109e1573d6000803e3d6000fd5b505050506040513d6000823e601f3d9081017fffffffffffffffffffffffffffffffffffffffffffffffffffffffffffffffe01682016040526020811015610a2857600080fd5b8101908080516040519392919084640100000000821115610a4857600080fd5b908301906020820185811115610a5d57600080fd5b8251640100000000811182820188101715610a7757600080fd5b82525081516020918201929091019080838360005b83811015610aa4578181015183820152602001610a8c565b50505050905090810190601f168015610ad15780820380516001836020036101000a031916815260200191505b50604052505050905060008673ffffffffffffffffffffffffffffffffffffffff166335d99f356040518163ffffffff1660e01b815260040160206040518083038186803b158015610b2257600080fd5b505afa158015610b36573d6000803e3d6000fd5b505050506040513d6020811015610b4c57600080fd5b5051604080517f6d3c5bbe000000000000000000000000000000000000000000000000000000008152905191925060009173ffffffffffffffffffffffffffffffffffffffff8a1691636d3c5bbe916004808301926020929190829003018186803b158015610bba57600080fd5b505afa158015610bce573d6000803e3d6000fd5b505050506040513d6020811015610be457600080fd5b5051604080517f9fd0506d000000000000000000000000000000000000000000000000000000008152905191925060009173ffffffffffffffffffffffffffffffffffffffff8b1691639fd0506d916004808301926020929190829003018186803b158015610c5257600080fd5b505afa158015610c66573d6000803e3d6000fd5b505050506040513d6020811015610c7c57600080fd5b5051604080517fbd102430000000000000000000000000000000000000000000000000000000008152905191925060009173ffffffffffffffffffffffffffffffffffffffff8c169163bd102430916004808301926020929190829003018186803b158015610cea57600080fd5b505afa158015610cfe573d6000803e3d6000fd5b505050506040513d6020811015610d1457600080fd5b5051600154600254604080517f3659cfe600000000000000000000000000000000000000000000000000000000815273ffffffffffffffffffffffffffffffffffffffff92831660048201529051939450911691633659cfe69160248082019260009290919082900301818387803b158015610d8f57600080fd5b505af1158015610da3573d6000803e3d6000fd5b5050600154600354604080517f8f28397000000000000000000000000000000000000000000000000000000000815273ffffffffffffffffffffffffffffffffffffffff92831660048201529051919092169350638f2839709250602480830192600092919082900301818387803b158015610e1e57600080fd5b505af1158015610e32573d6000803e3d6000fd5b5050600180546040517fd608ea640000000000000000000000000000000000000000000000000000000081526020600482019081526005805460027fffffffffffffffffffffffffffffffffffffffffffffffffffffffffffffffff96821615610100029690960116949094046024830181905273ffffffffffffffffffffffffffffffffffffffff909316955085945063d608ea6493929091829160449091019084908015610f235780601f10610ef857610100808354040283529160200191610f23565b820191906000526020600020905b815481529060010190602001808311610f0657829003601f168201915b505092505050600060405180830381600087803b158015610f4357600080fd5b505af1158015610f57573d6000803e3d6000fd5b505050508073ffffffffffffffffffffffffffffffffffffffff166306fdde036040518163ffffffff1660e01b815260040160006040518083038186803b158015610fa157600080fd5b505afa158015610fb5573d6000803e3d6000fd5b505050506040513d6000823e601f3d9081017fffffffffffffffffffffffffffffffffffffffffffffffffffffffffffffffe01682016040526020811015610ffc57600080fd5b810190808051604051939291908464010000000082111561101c57600080fd5b90830190602082018581111561103157600080fd5b825164010000000081118282018810171561104b57600080fd5b82525081516020918201929091019080838360005b83811015611078578181015183820152602001611060565b50505050905090810190601f1680156110a55780820380516001836020036101000a031916815260200191505b5060405250505080519060200120600560405180828054600181600116156101000203166002900480156111105780601f106110ee576101008083540402835291820191611110565b820191906000526020600020905b8154815290600101906020018083116110fc575b5050915050604051809103902014801561128757508073ffffffffffffffffffffffffffffffffffffffff166395d89b416040518163ffffffff1660e01b815260040160006040518083038186803b15801561116b57600080fd5b505afa15801561117f573d6000803e3d6000fd5b505050506040513d6000823e601f3d9081017fffffffffffffffffffffffffffffffffffffffffffffffffffffffffffffffe016820160405260208110156111c657600080fd5b81019080805160405193929190846401000000008211156111e657600080fd5b9083019060208201858111156111fb57600080fd5b825164010000000081118282018810171561121557600080fd5b82525081516020918201929091019080838360005b8381101561124257818101518382015260200161122a565b50505050905090810190601f16801561126f5780820380516001836020036101000a031916815260200191505b50604052505050805190602001208880519060200120145b801561130957508073ffffffffffffffffffffffffffffffffffffffff1663313ce5676040518163ffffffff1660e01b815260040160206040518083038186803b1580156112d457600080fd5b505afa1580156112e8573d6000803e3d6000fd5b505050506040513d60208110156112fe57600080fd5b505160ff8881169116145b801561147257508073ffffffffffffffffffffffffffffffffffffffff1663e5a6b10f6040518163ffffffff1660e01b815260040160006040518083038186803b15801561135657600080fd5b505afa15801561136a573d6000803e3d6000fd5b505050506040513d6000823e601f3d9081017fffffffffffffffffffffffffffffffffffffffffffffffffffffffffffffffe016820160405260208110156113b157600080fd5b81019080805160405193929190846401000000008211156113d157600080fd5b9083019060208201858111156113e657600080fd5b825164010000000081118282018810171561140057600080fd5b82525081516020918201929091019080838360005b8381101561142d578181015183820152602001611415565b50505050905090810190601f16801561145a5780820380516001836020036101000a031916815260200191505b50604052505050805190602001208680519060200120145b801561150757508073ffffffffffffffffffffffffffffffffffffffff166335d99f356040518163ffffffff1660e01b815260040160206040518083038186803b1580156114bf57600080fd5b505afa1580156114d3573d6000803e3d6000fd5b505050506040513d60208110156114e957600080fd5b505173ffffffffffffffffffffffffffffffffffffffff8681169116145b801561159c57508073ffffffffffffffffffffffffffffffffffffffff16638da5cb5b6040518163ffffffff1660e01b815260040160206040518083038186803b15801561155457600080fd5b505afa158015611568573d6000803e3d6000fd5b505050506040513d602081101561157e57600080fd5b505173ffffffffffffffffffffffffffffffffffffffff8581169116145b801561163157508073ffffffffffffffffffffffffffffffffffffffff16639fd0506d6040518163ffffffff1660e01b815260040160206040518083038186803b1580156115e957600080fd5b505afa1580156115fd573d6000803e3d6000fd5b505050506040513d602081101561161357600080fd5b505173ffffffffffffffffffffffffffffffffffffffff8481169116145b80156116c657508073ffffffffffffffffffffffffffffffffffffffff1663bd1024306040518163ffffffff1660e01b815260040160206040518083038186803b15801561167e57600080fd5b505afa158015611692573d6000803e3d6000fd5b505050506040513d60208110156116a857600080fd5b505173ffffffffffffffffffffffffffffffffffffffff8381169116145b61173157604080517f08c379a000000000000000000000000000000000000000000000000000000000815260206004820181905260248201527f563255706772616465723a206d657461646174612074657374206661696c6564604482015290519081900360640190fd5b898173ffffffffffffffffffffffffffffffffffffffff166370a08231306040518263ffffffff1660e01b8152600401808273ffffffffffffffffffffffffffffffffffffffff16815260200191505060206040518083038186803b15801561179957600080fd5b505afa1580156117ad573d6000803e3d6000fd5b505050506040513d60208110156117c357600080fd5b50511461181b576040517f08c379a000000000000000000000000000000000000000000000000000000000815260040180806020018281038252602181526020018061236d6021913960400191505060405180910390fd5b604080517fa9059cbb000000000000000000000000000000000000000000000000000000008152336004820152620186a06024820152905173ffffffffffffffffffffffffffffffffffffffff83169163a9059cbb9160448083019260209291908290030181600087803b15801561189257600080fd5b505af11580156118a6573d6000803e3d6000fd5b505050506040513d60208110156118bc57600080fd5b5051801561196c57506118d289620186a0612188565b604080517f70a08231000000000000000000000000000000000000000000000000000000008152336004820152905173ffffffffffffffffffffffffffffffffffffffff8416916370a08231916024808301926020929190829003018186803b15801561193e57600080fd5b505afa158015611952573d6000803e3d6000fd5b505050506040513d602081101561196857600080fd5b5051145b8015611a1a57506119808a620186a0612203565b604080517f70a08231000000000000000000000000000000000000000000000000000000008152306004820152905173ffffffffffffffffffffffffffffffffffffffff8416916370a08231916024808301926020929190829003018186803b1580156119ec57600080fd5b505afa158015611a00573d6000803e3d6000fd5b505050506040513d6020811015611a1657600080fd5b5051145b611a8557604080517f08c379a000000000000000000000000000000000000000000000000000000000815260206004820181905260248201527f563255706772616465723a207472616e736665722074657374206661696c6564604482015290519081900360640190fd5b8073ffffffffffffffffffffffffffffffffffffffff1663095ea7b38c620186a06040518363ffffffff1660e01b8152600401808373ffffffffffffffffffffffffffffffffffffffff16815260200182815260200192505050602060405180830381600087803b158015611af957600080fd5b505af1158015611b0d573d6000803e3d6000fd5b505050506040513d6020811015611b2357600080fd5b50518015611bd45750604080517fdd62ed3e00000000000000000000000000000000000000000000000000000000815230600482015273ffffffffffffffffffffffffffffffffffffffff8d8116602483015291519183169163dd62ed3e91604480820192602092909190829003018186803b158015611ba257600080fd5b505afa158015611bb6573d6000803e3d6000fd5b505050506040513d6020811015611bcc57600080fd5b5051620186a0145b8015611c855750604080517f23b872dd000000000000000000000000000000000000000000000000000000008152306004820152336024820152620186a06044820152905173ffffffffffffffffffffffffffffffffffffffff8d16916323b872dd9160648083019260209291908290030181600087803b158015611c5857600080fd5b505af1158015611c6c573d6000803e3d6000fd5b505050506040513d6020811015611c8257600080fd5b50515b8015611d2c5750604080517fdd62ed3e000000000000000000000000000000000000000000000000000000008152306004820152336024820152905173ffffffffffffffffffffffffffffffffffffffff83169163dd62ed3e916044808301926020929190829003018186803b158015611cfe57600080fd5b505afa158015611d12573d6000803e3d6000fd5b505050506040513d6020811015611d2857600080fd5b5051155b8015611dda5750611d408962030d40612188565b604080517f70a08231000000000000000000000000000000000000000000000000000000008152336004820152905173ffffffffffffffffffffffffffffffffffffffff8416916370a08231916024808301926020929190829003018186803b158015611dac57600080fd5b505afa158015611dc0573d6000803e3d6000fd5b505050506040513d6020811015611dd657600080fd5b5051145b8015611e885750611dee8a62030d40612203565b604080517f70a08231000000000000000000000000000000000000000000000000000000008152306004820152905173ffffffffffffffffffffffffffffffffffffffff8416916370a08231916024808301926020929190829003018186803b158015611e5a57600080fd5b505afa158015611e6e573d6000803e3d6000fd5b505050506040513d6020811015611e8457600080fd5b5051145b611edd576040517f08c379a000000000000000000000000000000000000000000000000000000000815260040180806020018281038252602c81526020018061238e602c913960400191505060405180910390fd5b611ee56101fa565b611eed61227a565b5050505050505050505050565b60005473ffffffffffffffffffffffffffffffffffffffff163314611f8057604080517f08c379a000000000000000000000000000000000000000000000000000000000815260206004820181905260248201527f4f776e61626c653a2063616c6c6572206973206e6f7420746865206f776e6572604482015290519081900360640190fd5b600154600354604080517f8f28397000000000000000000000000000000000000000000000000000000000815273ffffffffffffffffffffffffffffffffffffffff928316600482015290519190921691638f28397091602480830192600092919082900301818387803b158015611ff757600080fd5b505af115801561200b573d6000803e3d6000fd5b5050505061201761227a565b565b60015473ffffffffffffffffffffffffffffffffffffffff1690565b60005473ffffffffffffffffffffffffffffffffffffffff1633146120bb57604080517f08c379a000000000000000000000000000000000000000000000000000000000815260206004820181905260248201527f4f776e61626c653a2063616c6c6572206973206e6f7420746865206f776e6572604482015290519081900360640190fd5b73ffffffffffffffffffffffffffffffffffffffff8116612127576040517f08c379a00000000000000000000000000000000000000000000000000000000081526004018080602001828103825260268152602001806123476026913960400191505060405180910390fd5b6000546040805173ffffffffffffffffffffffffffffffffffffffff9283168152918316602083015280517f8be0079c531659141344cd1fd0a4f28419497f9722a3daafe3b4186f6b6457e09281900390910190a1612185816122ff565b50565b6000828201838110156121fc57604080517f08c379a000000000000000000000000000000000000000000000000000000000815260206004820152601b60248201527f536166654d6174683a206164646974696f6e206f766572666c6f770000000000604482015290519081900360640190fd5b9392505050565b60008282111561227457604080517f08c379a000000000000000000000000000000000000000000000000000000000815260206004820152601e60248201527f536166654d6174683a207375627472616374696f6e206f766572666c6f770000604482015290519081900360640190fd5b50900390565b60048054604080517fec1e6a4f000000000000000000000000000000000000000000000000000000008152905173ffffffffffffffffffffffffffffffffffffffff9092169263ec1e6a4f92828201926000929082900301818387803b1580156122e357600080fd5b505af11580156122f7573d6000803e3d6000fd5b503392505050ff5b600080547fffffffffffffffffffffffff00000000000000000000000000000000000000001673ffffffffffffffffffffffffffffffffffffffff9290921691909117905556fe4f776e61626c653a206e6577206f776e657220697320746865207a65726f2061646472657373563255706772616465723a2062616c616e63654f662074657374206661696c6564563255706772616465723a20617070726f76652f7472616e7366657246726f6d2074657374206661696c6564a2646970667358221220e3d6e9e8e407c27e49e7401860987411e6e259d6b3a4567b34970d3ec0456adf64736f6c634300060c0033608060405234801561001057600080fd5b50604051610c16380380610c168339818101604052602081101561003357600080fd5b50518061003f33610065565b600180546001600160a01b0319166001600160a01b039290921691909117905550610087565b600080546001600160a01b0319166001600160a01b0392909216919091179055565b610b80806100966000396000f3fe608060405234801561001057600080fd5b50600436106100ea5760003560e01c806395d89b411161008c578063e5a6b10f11610066578063e5a6b10f1461027f578063ec1e6a4f14610287578063ec55688914610291578063f2fde38b14610299576100ea565b806395d89b41146102675780639fd0506d1461026f578063bd10243014610277576100ea565b806335d99f35116100c857806335d99f35146101e15780636d3c5bbe1461021257806370a082311461021a5780638da5cb5b1461025f576100ea565b806306fdde03146100ef57806323b872dd1461016c578063313ce567146101c3575b600080fd5b6100f76102cc565b6040805160208082528351818301528351919283929083019185019080838360005b83811015610131578181015183820152602001610119565b50505050905090810190601f16801561015e5780820380516001836020036101000a031916815260200191505b509250505060405180910390f35b6101af6004803603606081101561018257600080fd5b5073ffffffffffffffffffffffffffffffffffffffff813581169160208101359091169060400135610447565b604080519115158252519081900360200190f35b6101cb610502565b6040805160ff9092168252519081900360200190f35b6101e961059e565b6040805173ffffffffffffffffffffffffffffffffffffffff9092168252519081900360200190f35b6101e9610609565b61024d6004803603602081101561023057600080fd5b503573ffffffffffffffffffffffffffffffffffffffff16610674565b60408051918252519081900360200190f35b6101e961071d565b6100f7610739565b6101e96107a4565b6101e961080f565b6100f761087a565b61028f6108e5565b005b6101e961096e565b61028f600480360360208110156102af57600080fd5b503573ffffffffffffffffffffffffffffffffffffffff1661098a565b600154604080517f06fdde03000000000000000000000000000000000000000000000000000000008152905160609273ffffffffffffffffffffffffffffffffffffffff16916306fdde03916004808301926000929190829003018186803b15801561033757600080fd5b505afa15801561034b573d6000803e3d6000fd5b505050506040513d6000823e601f3d9081017fffffffffffffffffffffffffffffffffffffffffffffffffffffffffffffffe0168201604052602081101561039257600080fd5b81019080805160405193929190846401000000008211156103b257600080fd5b9083019060208201858111156103c757600080fd5b82516401000000008111828201881017156103e157600080fd5b82525081516020918201929091019080838360005b8381101561040e5781810151838201526020016103f6565b50505050905090810190601f16801561043b5780820380516001836020036101000a031916815260200191505b50604052505050905090565b600154604080517f23b872dd00000000000000000000000000000000000000000000000000000000815273ffffffffffffffffffffffffffffffffffffffff8681166004830152858116602483015260448201859052915160009392909216916323b872dd9160648082019260209290919082900301818787803b1580156104ce57600080fd5b505af11580156104e2573d6000803e3d6000fd5b505050506040513d60208110156104f857600080fd5b5051949350505050565b600154604080517f313ce567000000000000000000000000000000000000000000000000000000008152905160009273ffffffffffffffffffffffffffffffffffffffff169163313ce567916004808301926020929190829003018186803b15801561056d57600080fd5b505afa158015610581573d6000803e3d6000fd5b505050506040513d602081101561059757600080fd5b5051905090565b600154604080517f35d99f35000000000000000000000000000000000000000000000000000000008152905160009273ffffffffffffffffffffffffffffffffffffffff16916335d99f35916004808301926020929190829003018186803b15801561056d57600080fd5b600154604080517f8da5cb5b000000000000000000000000000000000000000000000000000000008152905160009273ffffffffffffffffffffffffffffffffffffffff1691638da5cb5b916004808301926020929190829003018186803b15801561056d57600080fd5b600154604080517f70a0823100000000000000000000000000000000000000000000000000000000815273ffffffffffffffffffffffffffffffffffffffff8481166004830152915160009392909216916370a0823191602480820192602092909190829003018186803b1580156106eb57600080fd5b505afa1580156106ff573d6000803e3d6000fd5b505050506040513d602081101561071557600080fd5b505192915050565b60005473ffffffffffffffffffffffffffffffffffffffff1690565b600154604080517f95d89b41000000000000000000000000000000000000000000000000000000008152905160609273ffffffffffffffffffffffffffffffffffffffff16916395d89b41916004808301926000929190829003018186803b15801561033757600080fd5b600154604080517f9fd0506d000000000000000000000000000000000000000000000000000000008152905160009273ffffffffffffffffffffffffffffffffffffffff1691639fd0506d916004808301926020929190829003018186803b15801561056d57600080fd5b600154604080517fbd102430000000000000000000000000000000000000000000000000000000008152905160009273ffffffffffffffffffffffffffffffffffffffff169163bd102430916004808301926020929190829003018186803b15801561056d57600080fd5b600154604080517fe5a6b10f000000000000000000000000000000000000000000000000000000008152905160609273ffffffffffffffffffffffffffffffffffffffff169163e5a6b10f916004808301926000929190829003018186803b15801561033757600080fd5b60005473ffffffffffffffffffffffffffffffffffffffff16331461096b57604080517f08c379a000000000000000000000000000000000000000000000000000000000815260206004820181905260248201527f4f776e61626c653a2063616c6c6572206973206e6f7420746865206f776e6572604482015290519081900360640190fd5b33ff5b60015473ffffffffffffffffffffffffffffffffffffffff1690565b60005473ffffffffffffffffffffffffffffffffffffffff163314610a1057604080517f08c379a000000000000000000000000000000000000000000000000000000000815260206004820181905260248201527f4f776e61626c653a2063616c6c6572206973206e6f7420746865206f776e6572604482015290519081900360640190fd5b73ffffffffffffffffffffffffffffffffffffffff8116610a7c576040517f08c379a0000000000000000000000000000000000000000000000000000000008152600401808060200182810382526026815260200180610b256026913960400191505060405180910390fd5b6000546040805173ffffffffffffffffffffffffffffffffffffffff9283168152918316602083015280517f8be0079c531659141344cd1fd0a4f28419497f9722a3daafe3b4186f6b6457e09281900390910190a1610ada81610add565b50565b600080547fffffffffffffffffffffffff00000000000000000000000000000000000000001673ffffffffffffffffffffffffffffffffffffffff9290921691909117905556fe4f776e61626c653a206e6577206f776e657220697320746865207a65726f2061646472657373a26469706673582212201f1e6e33b6b10f1d20e2455939c3c977dc2055a818a8061539791607d375aeb564736f6c634300060c0033","linkReferences":{}},"methodIdentifiers":{"abortUpgrade()":"d8f6a8f6","helper()":"63b0e66a","implementation()":"5c60da1b","newName()":"64b78570","newProxyAdmin()":"2d4efffe","owner()":"8da5cb5b","proxy()":"ec556889","transferOwnership(address)":"f2fde38b","upgrade()":"d55ec697","withdrawFiatToken()":"3f247fe7"},"id":51}