{"abi":[{"type":"function","name":"CANCEL_AUTHORIZATION_TYPEHASH","inputs":[],"outputs":[{"name":"","type":"bytes32","internalType":"bytes32"}],"stateMutability":"view"},{"type":"function","name":"DOMAIN_SEPARATOR","inputs":[],"outputs":[{"name":"","type":"bytes32","internalType":"bytes32"}],"stateMutability":"view"},{"type":"function","name":"PERMIT_TYPEHASH","inputs":[],"outputs":[{"name":"","type":"bytes32","internalType":"bytes32"}],"stateMutability":"view"},{"type":"function","name":"RECEIVE_WITH_AUTHORIZATION_TYPEHASH","inputs":[],"outputs":[{"name":"","type":"bytes32","internalType":"bytes32"}],"stateMutability":"view"},{"type":"function","name":"TRANSFER_WITH_AUTHORIZATION_TYPEHASH","inputs":[],"outputs":[{"name":"","type":"bytes32","internalType":"bytes32"}],"stateMutability":"view"},{"type":"function","name":"allowance","inputs":[{"name":"owner","type":"address","internalType":"address"},{"name":"spender","type":"address","internalType":"address"}],"outputs":[{"name":"","type":"uint256","internalType":"uint256"}],"stateMutability":"view"},{"type":"function","name":"approve","inputs":[{"name":"spender","type":"address","internalType":"address"},{"name":"value","type":"uint256","internalType":"uint256"}],"outputs":[{"name":"","type":"bool","internalType":"bool"}],"stateMutability":"nonpayable"},{"type":"function","name":"authorizationState","inputs":[{"name":"authorizer","type":"address","internalType":"address"},{"name":"nonce","type":"bytes32","internalType":"bytes32"}],"outputs":[{"name":"","type":"bool","internalType":"bool"}],"stateMutability":"view"},{"type":"function","name":"balanceOf","inputs":[{"name":"account","type":"address","internalType":"address"}],"outputs":[{"name":"","type":"uint256","internalType":"uint256"}],"stateMutability":"view"},{"type":"function","name":"blacklist","inputs":[{"name":"_account","type":"address","internalType":"address"}],"outputs":[],"stateMutability":"nonpayable"},{"type":"function","name":"blacklister","inputs":[],"outputs":[{"name":"","type":"address","internalType":"address"}],"stateMutability":"view"},{"type":"function","name":"burn","inputs":[{"name":"_amount","type":"uint256","internalType":"uint256"}],"outputs":[],"stateMutability":"nonpayable"},{"type":"function","name":"cancelAuthorization","inputs":[{"name":"authorizer","type":"address","internalType":"address"},{"name":"nonce","type":"bytes32","internalType":"bytes32"},{"name":"v","type":"uint8","internalType":"uint8"},{"name":"r","type":"bytes32","internalType":"bytes32"},{"name":"s","type":"bytes32","internalType":"bytes32"}],"outputs":[],"stateMutability":"nonpayable"},{"type":"function","name":"cancelAuthorization","inputs":[{"name":"authorizer","type":"address","internalType":"address"},{"name":"nonce","type":"bytes32","internalType":"bytes32"},{"name":"signature","type":"bytes","internalType":"bytes"}],"outputs":[],"stateMutability":"nonpayable"},{"type":"function","name":"configureMinter","inputs":[{"name":"minter","type":"address","internalType":"address"},{"name":"minterAllowedAmount","type":"uint256","internalType":"uint256"}],"outputs":[{"name":"","type":"bool","internalType":"bool"}],"stateMutability":"nonpayable"},{"type":"function","name":"currency","inputs":[],"outputs":[{"name":"","type":"string","internalType":"string"}],"stateMutability":"view"},{"type":"function","name":"decimals","inputs":[],"outputs":[{"name":"","type":"uint8","internalType":"uint8"}],"stateMutability":"view"},{"type":"function","name":"decreaseAllowance","inputs":[{"name":"spender","type":"address","internalType":"address"},{"name":"decrement","type":"uint256","internalType":"uint256"}],"outputs":[{"name":"","type":"bool","internalType":"bool"}],"stateMutability":"nonpayable"},{"type":"function","name":"getBalanceAndBlacklistStates","inputs":[{"name":"_account","type":"address","internalType":"address"}],"outputs":[{"name":"","type":"uint256","internalType":"uint256"}],"stateMutability":"view"},{"type":"function","name":"increaseAllowance","inputs":[{"name":"spender","type":"address","internalType":"address"},{"name":"increment","type":"uint256","internalType":"uint256"}],"outputs":[{"name":"","type":"bool","internalType":"bool"}],"stateMutability":"nonpayable"},{"type":"function","name":"initialize","inputs":[{"name":"tokenName","type":"string","internalType":"string"},{"name":"tokenSymbol","type":"string","internalType":"string"},{"name":"tokenCurrency","type":"string","internalType":"string"},{"name":"tokenDecimals","type":"uint8","internalType":"uint8"},{"name":"newMasterMinter","type":"address","internalType":"address"},{"name":"newPauser","type":"address","internalType":"address"},{"name":"newBlacklister","type":"address","internalType":"address"},{"name":"newOwner","type":"address","internalType":"address"}],"outputs":[],"stateMutability":"nonpayable"},{"type":"function","name":"initializeV2","inputs":[{"name":"newName","type":"string","internalType":"string"}],"outputs":[],"stateMutability":"nonpayable"},{"type":"function","name":"initializeV2_1","inputs":[{"name":"lostAndFound","type":"address","internalType":"address"}],"outputs":[],"stateMutability":"nonpayable"},{"type":"function","name":"initializeV2_2","inputs":[{"name":"accountsToBlacklist","type":"address[]","internalType":"address[]"},{"name":"newSymbol","type":"string","internalType":"string"}],"outputs":[],"stateMutability":"nonpayable"},{"type":"function","name":"internal_balanceOf","inputs":[{"name":"_account","type":"address","internalType":"address"}],"outputs":[{"name":"","type":"uint256","internalType":"uint256"}],"stateMutability":"view"},{"type":"function","name":"internal_isBlacklisted","inputs":[{"name":"_account","type":"address","internalType":"address"}],"outputs":[{"name":"","type":"bool","internalType":"bool"}],"stateMutability":"view"},{"type":"function","name":"internal_setBalance","inputs":[{"name":"_account","type":"address","internalType":"address"},{"name":"_balance","type":"uint256","internalType":"uint256"}],"outputs":[],"stateMutability":"nonpayable"},{"type":"function","name":"internal_setBlacklistState","inputs":[{"name":"_account","type":"address","internalType":"address"},{"name":"_shouldBlacklist","type":"bool","internalType":"bool"}],"outputs":[],"stateMutability":"nonpayable"},{"type":"function","name":"isBlacklisted","inputs":[{"name":"_account","type":"address","internalType":"address"}],"outputs":[{"name":"","type":"bool","internalType":"bool"}],"stateMutability":"view"},{"type":"function","name":"isMinter","inputs":[{"name":"account","type":"address","internalType":"address"}],"outputs":[{"name":"","type":"bool","internalType":"bool"}],"stateMutability":"view"},{"type":"function","name":"masterMinter","inputs":[],"outputs":[{"name":"","type":"address","internalType":"address"}],"stateMutability":"view"},{"type":"function","name":"mint","inputs":[{"name":"_to","type":"address","internalType":"address"},{"name":"_amount","type":"uint256","internalType":"uint256"}],"outputs":[{"name":"","type":"bool","internalType":"bool"}],"stateMutability":"nonpayable"},{"type":"function","name":"minterAllowance","inputs":[{"name":"minter","type":"address","internalType":"address"}],"outputs":[{"name":"","type":"uint256","internalType":"uint256"}],"stateMutability":"view"},{"type":"function","name":"name","inputs":[],"outputs":[{"name":"","type":"string","internalType":"string"}],"stateMutability":"view"},{"type":"function","name":"nonces","inputs":[{"name":"owner","type":"address","internalType":"address"}],"outputs":[{"name":"","type":"uint256","internalType":"uint256"}],"stateMutability":"view"},{"type":"function","name":"owner","inputs":[],"outputs":[{"name":"","type":"address","internalType":"address"}],"stateMutability":"view"},{"type":"function","name":"pause","inputs":[],"outputs":[],"stateMutability":"nonpayable"},{"type":"function","name":"paused","inputs":[],"outputs":[{"name":"","type":"bool","internalType":"bool"}],"stateMutability":"view"},{"type":"function","name":"pauser","inputs":[],"outputs":[{"name":"","type":"address","internalType":"address"}],"stateMutability":"view"},{"type":"function","name":"permit","inputs":[{"name":"owner","type":"address","internalType":"address"},{"name":"spender","type":"address","internalType":"address"},{"name":"value","type":"uint256","internalType":"uint256"},{"name":"deadline","type":"uint256","internalType":"uint256"},{"name":"signature","type":"bytes","internalType":"bytes"}],"outputs":[],"stateMutability":"nonpayable"},{"type":"function","name":"permit","inputs":[{"name":"owner","type":"address","internalType":"address"},{"name":"spender","type":"address","internalType":"address"},{"name":"value","type":"uint256","internalType":"uint256"},{"name":"deadline","type":"uint256","internalType":"uint256"},{"name":"v","type":"uint8","internalType":"uint8"},{"name":"r","type":"bytes32","internalType":"bytes32"},{"name":"s","type":"bytes32","internalType":"bytes32"}],"outputs":[],"stateMutability":"nonpayable"},{"type":"function","name":"receiveWithAuthorization","inputs":[{"name":"from","type":"address","internalType":"address"},{"name":"to","type":"address","internalType":"address"},{"name":"value","type":"uint256","internalType":"uint256"},{"name":"validAfter","type":"uint256","internalType":"uint256"},{"name":"validBefore","type":"uint256","internalType":"uint256"},{"name":"nonce","type":"bytes32","internalType":"bytes32"},{"name":"signature","type":"bytes","internalType":"bytes"}],"outputs":[],"stateMutability":"nonpayable"},{"type":"function","name":"receiveWithAuthorization","inputs":[{"name":"from","type":"address","internalType":"address"},{"name":"to","type":"address","internalType":"address"},{"name":"value","type":"uint256","internalType":"uint256"},{"name":"validAfter","type":"uint256","internalType":"uint256"},{"name":"validBefore","type":"uint256","internalType":"uint256"},{"name":"nonce","type":"bytes32","internalType":"bytes32"},{"name":"v","type":"uint8","internalType":"uint8"},{"name":"r","type":"bytes32","internalType":"bytes32"},{"name":"s","type":"bytes32","internalType":"bytes32"}],"outputs":[],"stateMutability":"nonpayable"},{"type":"function","name":"removeMinter","inputs":[{"name":"minter","type":"address","internalType":"address"}],"outputs":[{"name":"","type":"bool","internalType":"bool"}],"stateMutability":"nonpayable"},{"type":"function","name":"rescueERC20","inputs":[{"name":"tokenContract","type":"address","internalType":"contract IERC20"},{"name":"to","type":"address","internalType":"address"},{"name":"amount","type":"uint256","internalType":"uint256"}],"outputs":[],"stateMutability":"nonpayable"},{"type":"function","name":"rescuer","inputs":[],"outputs":[{"name":"","type":"address","internalType":"address"}],"stateMutability":"view"},{"type":"function","name":"setBalanceAndBlacklistStates","inputs":[{"name":"_account","type":"address","internalType":"address"},{"name":"_state","type":"uint256","internalType":"uint256"}],"outputs":[],"stateMutability":"nonpayable"},{"type":"function","name":"symbol","inputs":[],"outputs":[{"name":"","type":"string","internalType":"string"}],"stateMutability":"view"},{"type":"function","name":"totalSupply","inputs":[],"outputs":[{"name":"","type":"uint256","internalType":"uint256"}],"stateMutability":"view"},{"type":"function","name":"transfer","inputs":[{"name":"to","type":"address","internalType":"address"},{"name":"value","type":"uint256","internalType":"uint256"}],"outputs":[{"name":"","type":"bool","internalType":"bool"}],"stateMutability":"nonpayable"},{"type":"function","name":"transferFrom","inputs":[{"name":"from","type":"address","internalType":"address"},{"name":"to","type":"address","internalType":"address"},{"name":"value","type":"uint256","internalType":"uint256"}],"outputs":[{"name":"","type":"bool","internalType":"bool"}],"stateMutability":"nonpayable"},{"type":"function","name":"transferOwnership","inputs":[{"name":"newOwner","type":"address","internalType":"address"}],"outputs":[],"stateMutability":"nonpayable"},{"type":"function","name":"transferWithAuthorization","inputs":[{"name":"from","type":"address","internalType":"address"},{"name":"to","type":"address","internalType":"address"},{"name":"value","type":"uint256","internalType":"uint256"},{"name":"validAfter","type":"uint256","internalType":"uint256"},{"name":"validBefore","type":"uint256","internalType":"uint256"},{"name":"nonce","type":"bytes32","internalType":"bytes32"},{"name":"signature","type":"bytes","internalType":"bytes"}],"outputs":[],"stateMutability":"nonpayable"},{"type":"function","name":"transferWithAuthorization","inputs":[{"name":"from","type":"address","internalType":"address"},{"name":"to","type":"address","internalType":"address"},{"name":"value","type":"uint256","internalType":"uint256"},{"name":"validAfter","type":"uint256","internalType":"uint256"},{"name":"validBefore","type":"uint256","internalType":"uint256"},{"name":"nonce","type":"bytes32","internalType":"bytes32"},{"name":"v","type":"uint8","internalType":"uint8"},{"name":"r","type":"bytes32","internalType":"bytes32"},{"name":"s","type":"bytes32","internalType":"bytes32"}],"outputs":[],"stateMutability":"nonpayable"},{"type":"function","name":"unBlacklist","inputs":[{"name":"_account","type":"address","internalType":"address"}],"outputs":[],"stateMutability":"nonpayable"},{"type":"function","name":"unpause","inputs":[],"outputs":[],"stateMutability":"nonpayable"},{"type":"function","name":"updateBlacklister","inputs":[{"name":"_newBlacklister","type":"address","internalType":"address"}],"outputs":[],"stateMutability":"nonpayable"},{"type":"function","name":"updateMasterMinter","inputs":[{"name":"_newMasterMinter","type":"address","internalType":"address"}],"outputs":[],"stateMutability":"nonpayable"},{"type":"function","name":"updatePauser","inputs":[{"name":"_newPauser","type":"address","internalType":"address"}],"outputs":[],"stateMutability":"nonpayable"},{"type":"function","name":"updateRescuer","inputs":[{"name":"newRescuer","type":"address","internalType":"address"}],"outputs":[],"stateMutability":"nonpayable"},{"type":"function","name":"version","inputs":[],"outputs":[{"name":"","type":"string","internalType":"string"}],"stateMutability":"pure"},{"type":"event","name":"Approval","inputs":[{"name":"owner","type":"address","indexed":true,"internalType":"address"},{"name":"spender","type":"address","indexed":true,"internalType":"address"},{"name":"value","type":"uint256","indexed":false,"internalType":"uint256"}],"anonymous":false},{"type":"event","name":"AuthorizationCanceled","inputs":[{"name":"authorizer","type":"address","indexed":true,"internalType":"address"},{"name":"nonce","type":"bytes32","indexed":true,"internalType":"bytes32"}],"anonymous":false},{"type":"event","name":"AuthorizationUsed","inputs":[{"name":"authorizer","type":"address","indexed":true,"internalType":"address"},{"name":"nonce","type":"bytes32","indexed":true,"internalType":"bytes32"}],"anonymous":false},{"type":"event","name":"Blacklisted","inputs":[{"name":"_account","type":"address","indexed":true,"internalType":"address"}],"anonymous":false},{"type":"event","name":"BlacklisterChanged","inputs":[{"name":"newBlacklister","type":"address","indexed":true,"internalType":"address"}],"anonymous":false},{"type":"event","name":"Burn","inputs":[{"name":"burner","type":"address","indexed":true,"internalType":"address"},{"name":"amount","type":"uint256","indexed":false,"internalType":"uint256"}],"anonymous":false},{"type":"event","name":"MasterMinterChanged","inputs":[{"name":"newMasterMinter","type":"address","indexed":true,"internalType":"address"}],"anonymous":false},{"type":"event","name":"Mint","inputs":[{"name":"minter","type":"address","indexed":true,"internalType":"address"},{"name":"to","type":"address","indexed":true,"internalType":"address"},{"name":"amount","type":"uint256","indexed":false,"internalType":"uint256"}],"anonymous":false},{"type":"event","name":"MinterConfigured","inputs":[{"name":"minter","type":"address","indexed":true,"internalType":"address"},{"name":"minterAllowedAmount","type":"uint256","indexed":false,"internalType":"uint256"}],"anonymous":false},{"type":"event","name":"MinterRemoved","inputs":[{"name":"oldMinter","type":"address","indexed":true,"internalType":"address"}],"anonymous":false},{"type":"event","name":"OwnershipTransferred","inputs":[{"name":"previousOwner","type":"address","indexed":false,"internalType":"address"},{"name":"newOwner","type":"address","indexed":false,"internalType":"address"}],"anonymous":false},{"type":"event","name":"Pause","inputs":[],"anonymous":false},{"type":"event","name":"PauserChanged","inputs":[{"name":"newAddress","type":"address","indexed":true,"internalType":"address"}],"anonymous":false},{"type":"event","name":"RescuerChanged","inputs":[{"name":"newRescuer","type":"address","indexed":true,"internalType":"address"}],"anonymous":false},{"type":"event","name":"Transfer","inputs":[{"name":"from","type":"address","indexed":true,"internalType":"address"},{"name":"to","type":"address","indexed":true,"internalType":"address"},{"name":"value","type":"uint256","indexed":false,"internalType":"uint256"}],"anonymous":false},{"type":"event","name":"UnBlacklisted","inputs":[{"name":"_account","type":"address","indexed":true,"internalType":"address"}],"anonymous":false},{"type":"event","name":"Unpause","inputs":[],"anonymous":false}],"bytecode":{"object":"0x60806040526001805460ff60a01b191690556000600b553480156200002357600080fd5b506200002f3362000035565b62000057565b600080546001600160a01b0319166001600160a01b0392909216919091179055565b615d0680620000676000396000f3fe608060405234801561001057600080fd5b50600436106103af5760003560e01c80637f9c8201116101f4578063b2118a8d1161011a578063dd62ed3e116100ad578063ef55bec61161007c578063ef55bec614611277578063f2fde38b146112e3578063f9f92be414611316578063fe575a871461047e576103af565b8063dd62ed3e1461118f578063e3ee160e146111ca578063e5a6b10f14611236578063e94a01021461123e576103af565b8063cf092995116100e9578063cf09299514610fd5578063d505accf146110b9578063d608ea6414611117578063d916948714611187576103af565b8063b2118a8d14610e8f578063b31ad28014610ed2578063b7b7289914610f05578063bd10243014610fcd576103af565b80639fd5a6cf11610192578063a9059cbb11610161578063a9059cbb14610dbd578063aa20e1e414610df6578063aa271e1a14610e29578063ad38bf2214610e5c576103af565b80639fd5a6cf14610ca4578063a0cc6a6814610d7c578063a457c2d714610d84578063a6241aaf14610ac6576103af565b80638a6db9c3116101ce5780638a6db9c314610c595780638da5cb5b14610c8c57806395d89b4114610c945780639fd0506d14610c9c576103af565b80637f9c820114610b345780638456cb5914610b6d57806388b7ab6314610b75576103af565b806338a63183116102d95780634e44d956116102775780635c975abb116102465780635c975abb14610abe57806370a0823114610ac65780637ecebe0014610af95780637f2eecc314610b2c576103af565b80634e44d956146109fc57806354fd4d5014610a35578063554bab3c14610a3d5780635a049a7014610a70576103af565b806340c10f19116102b357806340c10f19146108a957806342966c68146108e257806342fadd4e146108ff578063430239b41461093a576103af565b806338a631831461086057806339509351146108685780633f4ba83a146108a1576103af565b80632fc81e091161035157806331c23fc71161032057806331c23fc7146106025780633357162b1461063b57806335d99f35146108275780633644e51514610858576103af565b80632fc81e09146105765780633092afd5146105a957806330adf81f146105dc578063313ce567146105e4576103af565b806318160ddd1161038d57806318160ddd146104b15780631a895266146104cb57806323b872dd146105005780632ab6004514610543576103af565b806306fdde03146103b4578063095ea7b31461043157806309bedf121461047e575b600080fd5b6103bc611349565b6040805160208082528351818301528351919283929083019185019080838360005b838110156103f65781810151838201526020016103de565b50505050905090810190601f1680156104235780820380516001836020036101000a031916815260200191505b509250505060405180910390f35b61046a6004803603604081101561044757600080fd5b5073ffffffffffffffffffffffffffffffffffffffff81351690602001356113f5565b604080519115158252519081900360200190f35b61046a6004803603602081101561049457600080fd5b503573ffffffffffffffffffffffffffffffffffffffff16611496565b6104b96114a7565b60408051918252519081900360200190f35b6104fe600480360360208110156104e157600080fd5b503573ffffffffffffffffffffffffffffffffffffffff166114ad565b005b61046a6004803603606081101561051657600080fd5b5073ffffffffffffffffffffffffffffffffffffffff81358116916020810135909116906040013561156a565b6104fe6004803603602081101561055957600080fd5b503573ffffffffffffffffffffffffffffffffffffffff16611825565b6104fe6004803603602081101561058c57600080fd5b503573ffffffffffffffffffffffffffffffffffffffff16611986565b61046a600480360360208110156105bf57600080fd5b503573ffffffffffffffffffffffffffffffffffffffff166119ee565b6104b9611ae7565b6105ec611b0b565b6040805160ff9092168252519081900360200190f35b6104fe6004803603604081101561061857600080fd5b5073ffffffffffffffffffffffffffffffffffffffff8135169060200135611b14565b6104fe600480360361010081101561065257600080fd5b81019060208101813564010000000081111561066d57600080fd5b82018360208201111561067f57600080fd5b803590602001918460018302840111640100000000831117156106a157600080fd5b91908080601f01602080910402602001604051908101604052809392919081815260200183838082843760009201919091525092959493602081019350359150506401000000008111156106f457600080fd5b82018360208201111561070657600080fd5b8035906020019184600183028401116401000000008311171561072857600080fd5b91908080601f016020809104026020016040519081016040528093929190818152602001838380828437600092019190915250929594936020810193503591505064010000000081111561077b57600080fd5b82018360208201111561078d57600080fd5b803590602001918460018302840111640100000000831117156107af57600080fd5b91908080601f0160208091040260200160405190810160405280939291908181526020018383808284376000920191909152509295505050813560ff16925050602081013573ffffffffffffffffffffffffffffffffffffffff90811691604081013582169160608201358116916080013516611b22565b61082f611e64565b6040805173ffffffffffffffffffffffffffffffffffffffff9092168252519081900360200190f35b6104b9611e80565b61082f611e8f565b61046a6004803603604081101561087e57600080fd5b5073ffffffffffffffffffffffffffffffffffffffff8135169060200135611eab565b6104fe611f43565b61046a600480360360408110156108bf57600080fd5b5073ffffffffffffffffffffffffffffffffffffffff8135169060200135612006565b6104fe600480360360208110156108f857600080fd5b50356123d7565b6104fe6004803603604081101561091557600080fd5b5073ffffffffffffffffffffffffffffffffffffffff81351690602001351515612679565b6104fe6004803603604081101561095057600080fd5b81019060208101813564010000000081111561096b57600080fd5b82018360208201111561097d57600080fd5b8035906020019184602083028401116401000000008311171561099f57600080fd5b9193909290916020810190356401000000008111156109bd57600080fd5b8201836020820111156109cf57600080fd5b803590602001918460018302840111640100000000831117156109f157600080fd5b509092509050612683565b61046a60048036036040811015610a1257600080fd5b5073ffffffffffffffffffffffffffffffffffffffff813516906020013561283a565b6103bc6129cd565b6104fe60048036036020811015610a5357600080fd5b503573ffffffffffffffffffffffffffffffffffffffff16612a04565b6104fe600480360360a0811015610a8657600080fd5b5073ffffffffffffffffffffffffffffffffffffffff8135169060208101359060ff6040820135169060608101359060800135612b6b565b61046a612c09565b6104b960048036036020811015610adc57600080fd5b503573ffffffffffffffffffffffffffffffffffffffff16612c2a565b6104b960048036036020811015610b0f57600080fd5b503573ffffffffffffffffffffffffffffffffffffffff16612c35565b6104b9612c5d565b6104fe60048036036040811015610b4a57600080fd5b5073ffffffffffffffffffffffffffffffffffffffff8135169060200135612c81565b6104fe612caa565b6104fe600480360360e0811015610b8b57600080fd5b73ffffffffffffffffffffffffffffffffffffffff823581169260208101359091169160408201359160608101359160808201359160a08101359181019060e0810160c0820135640100000000811115610be457600080fd5b820183602082011115610bf657600080fd5b80359060200191846001830284011164010000000083111715610c1857600080fd5b91908080601f016020809104026020016040519081016040528093929190818152602001838380828437600092019190915250929550612d84945050505050565b6104b960048036036020811015610c6f57600080fd5b503573ffffffffffffffffffffffffffffffffffffffff16612ee8565b61082f612f10565b6103bc612f2c565b61082f612fa5565b6104fe600480360360a0811015610cba57600080fd5b73ffffffffffffffffffffffffffffffffffffffff823581169260208101359091169160408201359160608101359181019060a081016080820135640100000000811115610d0757600080fd5b820183602082011115610d1957600080fd5b80359060200191846001830284011164010000000083111715610d3b57600080fd5b91908080601f016020809104026020016040519081016040528093929190818152602001838380828437600092019190915250929550612fc1945050505050565b6104b9613058565b61046a60048036036040811015610d9a57600080fd5b5073ffffffffffffffffffffffffffffffffffffffff813516906020013561307c565b61046a60048036036040811015610dd357600080fd5b5073ffffffffffffffffffffffffffffffffffffffff8135169060200135613114565b6104fe60048036036020811015610e0c57600080fd5b503573ffffffffffffffffffffffffffffffffffffffff16613277565b61046a60048036036020811015610e3f57600080fd5b503573ffffffffffffffffffffffffffffffffffffffff166133de565b6104fe60048036036020811015610e7257600080fd5b503573ffffffffffffffffffffffffffffffffffffffff16613409565b6104fe60048036036060811015610ea557600080fd5b5073ffffffffffffffffffffffffffffffffffffffff813581169160208101359091169060400135613570565b6104b960048036036020811015610ee857600080fd5b503573ffffffffffffffffffffffffffffffffffffffff16613606565b6104fe60048036036060811015610f1b57600080fd5b73ffffffffffffffffffffffffffffffffffffffff82351691602081013591810190606081016040820135640100000000811115610f5857600080fd5b820183602082011115610f6a57600080fd5b80359060200191846001830284011164010000000083111715610f8c57600080fd5b91908080601f01602080910402602001604051908101604052809392919081815260200183838082843760009201919091525092955061362e945050505050565b61082f6136c3565b6104fe600480360360e0811015610feb57600080fd5b73ffffffffffffffffffffffffffffffffffffffff823581169260208101359091169160408201359160608101359160808201359160a08101359181019060e0810160c082013564010000000081111561104457600080fd5b82018360208201111561105657600080fd5b8035906020019184600183028401116401000000008311171561107857600080fd5b91908080601f0160208091040260200160405190810160405280939291908181526020018383808284376000920191909152509295506136df945050505050565b6104fe600480360360e08110156110cf57600080fd5b5073ffffffffffffffffffffffffffffffffffffffff813581169160208101359091169060408101359060608101359060ff6080820135169060a08101359060c00135613838565b6104fe6004803603602081101561112d57600080fd5b81019060208101813564010000000081111561114857600080fd5b82018360208201111561115a57600080fd5b8035906020019184600183028401116401000000008311171561117c57600080fd5b5090925090506138da565b6104b96139c3565b6104b9600480360360408110156111a557600080fd5b5073ffffffffffffffffffffffffffffffffffffffff813581169160200135166139e7565b6104fe60048036036101208110156111e157600080fd5b5073ffffffffffffffffffffffffffffffffffffffff813581169160208101359091169060408101359060608101359060808101359060a08101359060ff60c0820135169060e0810135906101000135613a1f565b6103bc613b87565b61046a6004803603604081101561125457600080fd5b5073ffffffffffffffffffffffffffffffffffffffff8135169060200135613c00565b6104fe600480360361012081101561128e57600080fd5b5073ffffffffffffffffffffffffffffffffffffffff813581169160208101359091169060408101359060608101359060808101359060a08101359060ff60c0820135169060e0810135906101000135613c38565b6104fe600480360360208110156112f957600080fd5b503573ffffffffffffffffffffffffffffffffffffffff16613d93565b6104fe6004803603602081101561132c57600080fd5b503573ffffffffffffffffffffffffffffffffffffffff16613ee6565b6004805460408051602060026001851615610100027fffffffffffffffffffffffffffffffffffffffffffffffffffffffffffffffff0190941693909304601f810184900484028201840190925281815292918301828280156113ed5780601f106113c2576101008083540402835291602001916113ed565b820191906000526020600020905b8154815290600101906020018083116113d057829003601f168201915b505050505081565b60015460009074010000000000000000000000000000000000000000900460ff161561148257604080517f08c379a000000000000000000000000000000000000000000000000000000000815260206004820152601060248201527f5061757361626c653a2070617573656400000000000000000000000000000000604482015290519081900360640190fd5b61148d338484613fa3565b50600192915050565b60006114a1826140ea565b92915050565b600b5490565b60025473ffffffffffffffffffffffffffffffffffffffff16331461151d576040517f08c379a000000000000000000000000000000000000000000000000000000000815260040180806020018281038252602c815260200180615982602c913960400191505060405180910390fd5b61152681614118565b60405173ffffffffffffffffffffffffffffffffffffffff8216907f117e3210bb9aa7d9baff172026820255c6f6c30ba8999d1c2fd88e2848137c4e90600090a250565b60015460009074010000000000000000000000000000000000000000900460ff16156115f757604080517f08c379a000000000000000000000000000000000000000000000000000000000815260206004820152601060248201527f5061757361626c653a2070617573656400000000000000000000000000000000604482015290519081900360640190fd5b33611601816140ea565b15611657576040517f08c379a0000000000000000000000000000000000000000000000000000000008152600401808060200182810382526025815260200180615c626025913960400191505060405180910390fd5b84611661816140ea565b156116b7576040517f08c379a0000000000000000000000000000000000000000000000000000000008152600401808060200182810382526025815260200180615c626025913960400191505060405180910390fd5b846116c1816140ea565b15611717576040517f08c379a0000000000000000000000000000000000000000000000000000000008152600401808060200182810382526025815260200180615c626025913960400191505060405180910390fd5b73ffffffffffffffffffffffffffffffffffffffff87166000908152600a602090815260408083203384529091529020548511156117a0576040517f08c379a0000000000000000000000000000000000000000000000000000000008152600401808060200182810382526028815260200180615a726028913960400191505060405180910390fd5b6117ab878787614123565b73ffffffffffffffffffffffffffffffffffffffff87166000908152600a602090815260408083203384529091529020546117e690866142ee565b73ffffffffffffffffffffffffffffffffffffffff88166000908152600a60209081526040808320338452909152902055600193505050509392505050565b60005473ffffffffffffffffffffffffffffffffffffffff1633146118ab57604080517f08c379a000000000000000000000000000000000000000000000000000000000815260206004820181905260248201527f4f776e61626c653a2063616c6c6572206973206e6f7420746865206f776e6572604482015290519081900360640190fd5b73ffffffffffffffffffffffffffffffffffffffff8116611917576040517f08c379a000000000000000000000000000000000000000000000000000000000815260040180806020018281038252602a8152602001806158bb602a913960400191505060405180910390fd5b600e80547fffffffffffffffffffffffff00000000000000000000000000000000000000001673ffffffffffffffffffffffffffffffffffffffff83169081179091556040517fe475e580d85111348e40d8ca33cfdd74c30fe1655c2d8537a13abc10065ffa5a90600090a250565b60125460ff1660011461199857600080fd5b60006119a330614365565b905080156119b6576119b6308383614123565b6119bf306143af565b5050601280547fffffffffffffffffffffffffffffffffffffffffffffffffffffffffffffff00166002179055565b60085460009073ffffffffffffffffffffffffffffffffffffffff163314611a61576040517f08c379a00000000000000000000000000000000000000000000000000000000081526004018080602001828103825260298152602001806159596029913960400191505060405180910390fd5b73ffffffffffffffffffffffffffffffffffffffff82166000818152600c6020908152604080832080547fffffffffffffffffffffffffffffffffffffffffffffffffffffffffffffff00169055600d909152808220829055517fe94479a9f7e1952cc78f2d6baab678adc1b772d936c6583def489e524cb666929190a2506001919050565b7f6e71edae12b1b97f4d1f60370fef10105fa2faae0126114a169c64845d6126c981565b60065460ff1681565b611b1e82826143ba565b5050565b60085474010000000000000000000000000000000000000000900460ff1615611b96576040517f08c379a000000000000000000000000000000000000000000000000000000000815260040180806020018281038252602a815260200180615aed602a913960400191505060405180910390fd5b73ffffffffffffffffffffffffffffffffffffffff8416611c02576040517f08c379a000000000000000000000000000000000000000000000000000000000815260040180806020018281038252602f815260200180615a1f602f913960400191505060405180910390fd5b73ffffffffffffffffffffffffffffffffffffffff8316611c6e576040517f08c379a00000000000000000000000000000000000000000000000000000000081526004018080602001828103825260298152602001806158926029913960400191505060405180910390fd5b73ffffffffffffffffffffffffffffffffffffffff8216611cda576040517f08c379a000000000000000000000000000000000000000000000000000000000815260040180806020018281038252602e815260200180615a9a602e913960400191505060405180910390fd5b73ffffffffffffffffffffffffffffffffffffffff8116611d46576040517f08c379a0000000000000000000000000000000000000000000000000000000008152600401808060200182810382526028815260200180615bda6028913960400191505060405180910390fd5b8751611d599060049060208b019061562b565b508651611d6d9060059060208a019061562b565b508551611d8190600790602089019061562b565b50600680547fffffffffffffffffffffffffffffffffffffffffffffffffffffffffffffff001660ff8716179055600880547fffffffffffffffffffffffff000000000000000000000000000000000000000090811673ffffffffffffffffffffffffffffffffffffffff8781169190911790925560018054821686841617905560028054909116918416919091179055611e1b81614492565b5050600880547fffffffffffffffffffffff00ffffffffffffffffffffffffffffffffffffffff1674010000000000000000000000000000000000000000179055505050505050565b60085473ffffffffffffffffffffffffffffffffffffffff1681565b6000611e8a6144d9565b905090565b600e5473ffffffffffffffffffffffffffffffffffffffff1690565b60015460009074010000000000000000000000000000000000000000900460ff1615611f3857604080517f08c379a000000000000000000000000000000000000000000000000000000000815260206004820152601060248201527f5061757361626c653a2070617573656400000000000000000000000000000000604482015290519081900360640190fd5b61148d3384846145ce565b60015473ffffffffffffffffffffffffffffffffffffffff163314611fb3576040517f08c379a0000000000000000000000000000000000000000000000000000000008152600401808060200182810382526022815260200180615b8e6022913960400191505060405180910390fd5b600180547fffffffffffffffffffffff00ffffffffffffffffffffffffffffffffffffffff1690556040517f7805862f689e2f13df9f062ff482ad3ad112aca9e0847911ed832e158c525b3390600090a1565b60015460009074010000000000000000000000000000000000000000900460ff161561209357604080517f08c379a000000000000000000000000000000000000000000000000000000000815260206004820152601060248201527f5061757361626c653a2070617573656400000000000000000000000000000000604482015290519081900360640190fd5b336000908152600c602052604090205460ff166120fb576040517f08c379a00000000000000000000000000000000000000000000000000000000081526004018080602001828103825260218152602001806159fe6021913960400191505060405180910390fd5b33612105816140ea565b1561215b576040517f08c379a0000000000000000000000000000000000000000000000000000000008152600401808060200182810382526025815260200180615c626025913960400191505060405180910390fd5b83612165816140ea565b156121bb576040517f08c379a0000000000000000000000000000000000000000000000000000000008152600401808060200182810382526025815260200180615c626025913960400191505060405180910390fd5b73ffffffffffffffffffffffffffffffffffffffff8516612227576040517f08c379a00000000000000000000000000000000000000000000000000000000081526004018080602001828103825260238152602001806158276023913960400191505060405180910390fd5b60008411612280576040517f08c379a000000000000000000000000000000000000000000000000000000000815260040180806020018281038252602981526020018061590a6029913960400191505060405180910390fd5b336000908152600d6020526040902054808511156122e9576040517f08c379a000000000000000000000000000000000000000000000000000000000815260040180806020018281038252602e815260200180615b60602e913960400191505060405180910390fd5b600b546122f69086614618565b600b55612315866123108761230a83614365565b90614618565b6143ba565b61231f81866142ee565b336000818152600d6020908152604091829020939093558051888152905173ffffffffffffffffffffffffffffffffffffffff8a16937fab8530f87dc9b59234c4623bf917212bb2536d647574c8e7e5da92c2ede0c9f8928290030190a360408051868152905173ffffffffffffffffffffffffffffffffffffffff8816916000917fddf252ad1be2c89b69c2b068fc378daa952ba7f163c4a11628f55a4df523b3ef9181900360200190a350600195945050505050565b60015474010000000000000000000000000000000000000000900460ff161561246157604080517f08c379a000000000000000000000000000000000000000000000000000000000815260206004820152601060248201527f5061757361626c653a2070617573656400000000000000000000000000000000604482015290519081900360640190fd5b336000908152600c602052604090205460ff166124c9576040517f08c379a00000000000000000000000000000000000000000000000000000000081526004018080602001828103825260218152602001806159fe6021913960400191505060405180910390fd5b336124d3816140ea565b15612529576040517f08c379a0000000000000000000000000000000000000000000000000000000008152600401808060200182810382526025815260200180615c626025913960400191505060405180910390fd5b600061253433614365565b90506000831161258f576040517f08c379a00000000000000000000000000000000000000000000000000000000081526004018080602001828103825260298152602001806157fe6029913960400191505060405180910390fd5b828110156125e8576040517f08c379a00000000000000000000000000000000000000000000000000000000081526004018080602001828103825260268152602001806159d86026913960400191505060405180910390fd5b600b546125f590846142ee565b600b556126063361231083866142ee565b60408051848152905133917fcc16f5dbb4873280815c1ee09dbd06736cffcc184412cf7a71a0fdb75d397ca5919081900360200190a260408051848152905160009133917fddf252ad1be2c89b69c2b068fc378daa952ba7f163c4a11628f55a4df523b3ef9181900360200190a3505050565b611b1e8282614693565b60125460ff1660021461269557600080fd5b6126a1600583836156a9565b5060005b838110156127e357600360008686848181106126bd57fe5b6020908102929092013573ffffffffffffffffffffffffffffffffffffffff168352508101919091526040016000205460ff16612745576040517f08c379a000000000000000000000000000000000000000000000000000000000815260040180806020018281038252603d81526020018061574b603d913960400191505060405180910390fd5b61277685858381811061275457fe5b9050602002013573ffffffffffffffffffffffffffffffffffffffff166143af565b6003600086868481811061278657fe5b6020908102929092013573ffffffffffffffffffffffffffffffffffffffff1683525081019190915260400160002080547fffffffffffffffffffffffffffffffffffffffffffffffffffffffffffffff001690556001016126a5565b506127ed306143af565b505030600090815260036020819052604090912080547fffffffffffffffffffffffffffffffffffffffffffffffffffffffffffffff009081169091556012805490911690911790555050565b60015460009074010000000000000000000000000000000000000000900460ff16156128c757604080517f08c379a000000000000000000000000000000000000000000000000000000000815260206004820152601060248201527f5061757361626c653a2070617573656400000000000000000000000000000000604482015290519081900360640190fd5b60085473ffffffffffffffffffffffffffffffffffffffff163314612937576040517f08c379a00000000000000000000000000000000000000000000000000000000081526004018080602001828103825260298152602001806159596029913960400191505060405180910390fd5b73ffffffffffffffffffffffffffffffffffffffff83166000818152600c6020908152604080832080547fffffffffffffffffffffffffffffffffffffffffffffffffffffffffffffff00166001179055600d825291829020859055815185815291517f46980fca912ef9bcdbd36877427b6b90e860769f604e89c0e67720cece530d209281900390910190a250600192915050565b60408051808201909152600181527f3200000000000000000000000000000000000000000000000000000000000000602082015290565b60005473ffffffffffffffffffffffffffffffffffffffff163314612a8a57604080517f08c379a000000000000000000000000000000000000000000000000000000000815260206004820181905260248201527f4f776e61626c653a2063616c6c6572206973206e6f7420746865206f776e6572604482015290519081900360640190fd5b73ffffffffffffffffffffffffffffffffffffffff8116612af6576040517f08c379a00000000000000000000000000000000000000000000000000000000081526004018080602001828103825260288152602001806157ab6028913960400191505060405180910390fd5b600180547fffffffffffffffffffffffff00000000000000000000000000000000000000001673ffffffffffffffffffffffffffffffffffffffff83811691909117918290556040519116907fb80482a293ca2e013eda8683c9bd7fc8347cfdaeea5ede58cba46df502c2a60490600090a250565b60015474010000000000000000000000000000000000000000900460ff1615612bf557604080517f08c379a000000000000000000000000000000000000000000000000000000000815260206004820152601060248201527f5061757361626c653a2070617573656400000000000000000000000000000000604482015290519081900360640190fd5b612c02858585858561471c565b5050505050565b60015474010000000000000000000000000000000000000000900460ff1681565b60006114a182614365565b73ffffffffffffffffffffffffffffffffffffffff1660009081526011602052604090205490565b7fd099cc98ef71107a616c4f0f941f04c322d8e254fe26b3c6668db87aae413de881565b73ffffffffffffffffffffffffffffffffffffffff909116600090815260096020526040902055565b60015473ffffffffffffffffffffffffffffffffffffffff163314612d1a576040517f08c379a0000000000000000000000000000000000000000000000000000000008152600401808060200182810382526022815260200180615b8e6022913960400191505060405180910390fd5b600180547fffffffffffffffffffffff00ffffffffffffffffffffffffffffffffffffffff16740100000000000000000000000000000000000000001790556040517f6985a02210a168e66602d3235cb6db0e70f92b3ba4d376a33c0f3d9434bff62590600090a1565b60015474010000000000000000000000000000000000000000900460ff1615612e0e57604080517f08c379a000000000000000000000000000000000000000000000000000000000815260206004820152601060248201527f5061757361626c653a2070617573656400000000000000000000000000000000604482015290519081900360640190fd5b86612e18816140ea565b15612e6e576040517f08c379a0000000000000000000000000000000000000000000000000000000008152600401808060200182810382526025815260200180615c626025913960400191505060405180910390fd5b86612e78816140ea565b15612ece576040517f08c379a0000000000000000000000000000000000000000000000000000000008152600401808060200182810382526025815260200180615c626025913960400191505060405180910390fd5b612edd8989898989898961475c565b505050505050505050565b73ffffffffffffffffffffffffffffffffffffffff166000908152600d602052604090205490565b60005473ffffffffffffffffffffffffffffffffffffffff1690565b6005805460408051602060026001851615610100027fffffffffffffffffffffffffffffffffffffffffffffffffffffffffffffffff0190941693909304601f810184900484028201840190925281815292918301828280156113ed5780601f106113c2576101008083540402835291602001916113ed565b60015473ffffffffffffffffffffffffffffffffffffffff1681565b60015474010000000000000000000000000000000000000000900460ff161561304b57604080517f08c379a000000000000000000000000000000000000000000000000000000000815260206004820152601060248201527f5061757361626c653a2070617573656400000000000000000000000000000000604482015290519081900360640190fd5b612c02858585858561487d565b7f7c7c6cdb67a18743f49ec6fa9b35f50d52ed05cbed4cc592e13b44501c1a226781565b60015460009074010000000000000000000000000000000000000000900460ff161561310957604080517f08c379a000000000000000000000000000000000000000000000000000000000815260206004820152601060248201527f5061757361626c653a2070617573656400000000000000000000000000000000604482015290519081900360640190fd5b61148d338484614b41565b60015460009074010000000000000000000000000000000000000000900460ff16156131a157604080517f08c379a000000000000000000000000000000000000000000000000000000000815260206004820152601060248201527f5061757361626c653a2070617573656400000000000000000000000000000000604482015290519081900360640190fd5b336131ab816140ea565b15613201576040517f08c379a0000000000000000000000000000000000000000000000000000000008152600401808060200182810382526025815260200180615c626025913960400191505060405180910390fd5b8361320b816140ea565b15613261576040517f08c379a0000000000000000000000000000000000000000000000000000000008152600401808060200182810382526025815260200180615c626025913960400191505060405180910390fd5b61326c338686614123565b506001949350505050565b60005473ffffffffffffffffffffffffffffffffffffffff1633146132fd57604080517f08c379a000000000000000000000000000000000000000000000000000000000815260206004820181905260248201527f4f776e61626c653a2063616c6c6572206973206e6f7420746865206f776e6572604482015290519081900360640190fd5b73ffffffffffffffffffffffffffffffffffffffff8116613369576040517f08c379a000000000000000000000000000000000000000000000000000000000815260040180806020018281038252602f815260200180615a1f602f913960400191505060405180910390fd5b600880547fffffffffffffffffffffffff00000000000000000000000000000000000000001673ffffffffffffffffffffffffffffffffffffffff83811691909117918290556040519116907fdb66dfa9c6b8f5226fe9aac7e51897ae8ee94ac31dc70bb6c9900b2574b707e690600090a250565b73ffffffffffffffffffffffffffffffffffffffff166000908152600c602052604090205460ff1690565b60005473ffffffffffffffffffffffffffffffffffffffff16331461348f57604080517f08c379a000000000000000000000000000000000000000000000000000000000815260206004820181905260248201527f4f776e61626c653a2063616c6c6572206973206e6f7420746865206f776e6572604482015290519081900360640190fd5b73ffffffffffffffffffffffffffffffffffffffff81166134fb576040517f08c379a0000000000000000000000000000000000000000000000000000000008152600401808060200182810382526032815260200180615c306032913960400191505060405180910390fd5b600280547fffffffffffffffffffffffff00000000000000000000000000000000000000001673ffffffffffffffffffffffffffffffffffffffff83811691909117918290556040519116907fc67398012c111ce95ecb7429b933096c977380ee6c421175a71a4a4c6c88c06e90600090a250565b600e5473ffffffffffffffffffffffffffffffffffffffff1633146135e0576040517f08c379a0000000000000000000000000000000000000000000000000000000008152600401808060200182810382526024815260200180615a4e6024913960400191505060405180910390fd5b61360173ffffffffffffffffffffffffffffffffffffffff84168383614b9d565b505050565b73ffffffffffffffffffffffffffffffffffffffff1660009081526009602052604090205490565b60015474010000000000000000000000000000000000000000900460ff16156136b857604080517f08c379a000000000000000000000000000000000000000000000000000000000815260206004820152601060248201527f5061757361626c653a2070617573656400000000000000000000000000000000604482015290519081900360640190fd5b613601838383614c2a565b60025473ffffffffffffffffffffffffffffffffffffffff1681565b60015474010000000000000000000000000000000000000000900460ff161561376957604080517f08c379a000000000000000000000000000000000000000000000000000000000815260206004820152601060248201527f5061757361626c653a2070617573656400000000000000000000000000000000604482015290519081900360640190fd5b86613773816140ea565b156137c9576040517f08c379a0000000000000000000000000000000000000000000000000000000008152600401808060200182810382526025815260200180615c626025913960400191505060405180910390fd5b866137d3816140ea565b15613829576040517f08c379a0000000000000000000000000000000000000000000000000000000008152600401808060200182810382526025815260200180615c626025913960400191505060405180910390fd5b612edd89898989898989614d34565b60015474010000000000000000000000000000000000000000900460ff16156138c257604080517f08c379a000000000000000000000000000000000000000000000000000000000815260206004820152601060248201527f5061757361626c653a2070617573656400000000000000000000000000000000604482015290519081900360640190fd5b6138d187878787878787614dd2565b50505050505050565b60085474010000000000000000000000000000000000000000900460ff168015613907575060125460ff16155b61391057600080fd5b61391c600483836156a9565b5061399182828080601f0160208091040260200160405190810160405280939291908181526020018383808284376000920191909152505060408051808201909152600181527f320000000000000000000000000000000000000000000000000000000000000060208201529150614e149050565b600f555050601280547fffffffffffffffffffffffffffffffffffffffffffffffffffffffffffffff00166001179055565b7f158b0a9edf7a828aad02f63cd515c68ef2f50ba807396f6d12842833a159742981565b73ffffffffffffffffffffffffffffffffffffffff9182166000908152600a6020908152604080832093909416825291909152205490565b60015474010000000000000000000000000000000000000000900460ff1615613aa957604080517f08c379a000000000000000000000000000000000000000000000000000000000815260206004820152601060248201527f5061757361626c653a2070617573656400000000000000000000000000000000604482015290519081900360640190fd5b88613ab3816140ea565b15613b09576040517f08c379a0000000000000000000000000000000000000000000000000000000008152600401808060200182810382526025815260200180615c626025913960400191505060405180910390fd5b88613b13816140ea565b15613b69576040517f08c379a0000000000000000000000000000000000000000000000000000000008152600401808060200182810382526025815260200180615c626025913960400191505060405180910390fd5b613b7a8b8b8b8b8b8b8b8b8b614e2a565b5050505050505050505050565b6007805460408051602060026001851615610100027fffffffffffffffffffffffffffffffffffffffffffffffffffffffffffffffff0190941693909304601f810184900484028201840190925281815292918301828280156113ed5780601f106113c2576101008083540402835291602001916113ed565b73ffffffffffffffffffffffffffffffffffffffff919091166000908152601060209081526040808320938352929052205460ff1690565b60015474010000000000000000000000000000000000000000900460ff1615613cc257604080517f08c379a000000000000000000000000000000000000000000000000000000000815260206004820152601060248201527f5061757361626c653a2070617573656400000000000000000000000000000000604482015290519081900360640190fd5b88613ccc816140ea565b15613d22576040517f08c379a0000000000000000000000000000000000000000000000000000000008152600401808060200182810382526025815260200180615c626025913960400191505060405180910390fd5b88613d2c816140ea565b15613d82576040517f08c379a0000000000000000000000000000000000000000000000000000000008152600401808060200182810382526025815260200180615c626025913960400191505060405180910390fd5b613b7a8b8b8b8b8b8b8b8b8b614e6e565b60005473ffffffffffffffffffffffffffffffffffffffff163314613e1957604080517f08c379a000000000000000000000000000000000000000000000000000000000815260206004820181905260248201527f4f776e61626c653a2063616c6c6572206973206e6f7420746865206f776e6572604482015290519081900360640190fd5b73ffffffffffffffffffffffffffffffffffffffff8116613e85576040517f08c379a000000000000000000000000000000000000000000000000000000000815260040180806020018281038252602681526020018061584a6026913960400191505060405180910390fd5b6000546040805173ffffffffffffffffffffffffffffffffffffffff9283168152918316602083015280517f8be0079c531659141344cd1fd0a4f28419497f9722a3daafe3b4186f6b6457e09281900390910190a1613ee381614492565b50565b60025473ffffffffffffffffffffffffffffffffffffffff163314613f56576040517f08c379a000000000000000000000000000000000000000000000000000000000815260040180806020018281038252602c815260200180615982602c913960400191505060405180910390fd5b613f5f816143af565b60405173ffffffffffffffffffffffffffffffffffffffff8216907fffa4e6181777692565cf28528fc88fd1516ea86b56da075235fa575af6a4b85590600090a250565b73ffffffffffffffffffffffffffffffffffffffff831661400f576040517f08c379a0000000000000000000000000000000000000000000000000000000008152600401808060200182810382526024815260200180615b3c6024913960400191505060405180910390fd5b73ffffffffffffffffffffffffffffffffffffffff821661407b576040517f08c379a00000000000000000000000000000000000000000000000000000000081526004018080602001828103825260228152602001806158706022913960400191505060405180910390fd5b73ffffffffffffffffffffffffffffffffffffffff8084166000818152600a6020908152604080832094871680845294825291829020859055815185815291517f8c5be1e5ebec7d5bd14f71427d1e84f3dd0314c0f7b2291e5b200ac8c7c3b9259281900390910190a3505050565b73ffffffffffffffffffffffffffffffffffffffff1660009081526009602052604090205460ff1c60011490565b613ee3816000614693565b73ffffffffffffffffffffffffffffffffffffffff831661418f576040517f08c379a0000000000000000000000000000000000000000000000000000000008152600401808060200182810382526025815260200180615b176025913960400191505060405180910390fd5b73ffffffffffffffffffffffffffffffffffffffff82166141fb576040517f08c379a00000000000000000000000000000000000000000000000000000000081526004018080602001828103825260238152602001806157886023913960400191505060405180910390fd5b61420483614365565b81111561425c576040517f08c379a00000000000000000000000000000000000000000000000000000000081526004018080602001828103825260268152602001806159336026913960400191505060405180910390fd5b614273836123108361426d87614365565b906142ee565b614284826123108361230a86614365565b8173ffffffffffffffffffffffffffffffffffffffff168373ffffffffffffffffffffffffffffffffffffffff167fddf252ad1be2c89b69c2b068fc378daa952ba7f163c4a11628f55a4df523b3ef836040518082815260200191505060405180910390a3505050565b60008282111561435f57604080517f08c379a000000000000000000000000000000000000000000000000000000000815260206004820152601e60248201527f536166654d6174683a207375627472616374696f6e206f766572666c6f770000604482015290519081900360640190fd5b50900390565b73ffffffffffffffffffffffffffffffffffffffff166000908152600960205260409020547f7fffffffffffffffffffffffffffffffffffffffffffffffffffffffffffffff1690565b613ee3816001614693565b7f7fffffffffffffffffffffffffffffffffffffffffffffffffffffffffffffff811115614433576040517f08c379a000000000000000000000000000000000000000000000000000000000815260040180806020018281038252602a8152602001806159ae602a913960400191505060405180910390fd5b61443c826140ea565b15612c81576040517f08c379a00000000000000000000000000000000000000000000000000000000081526004018080602001828103825260258152602001806158e56025913960400191505060405180910390fd5b600080547fffffffffffffffffffffffff00000000000000000000000000000000000000001673ffffffffffffffffffffffffffffffffffffffff92909216919091179055565b6004805460408051602060026001851615610100027fffffffffffffffffffffffffffffffffffffffffffffffffffffffffffffffff0190941693909304601f8101849004840282018401909252818152600093611e8a93919290918301828280156145865780601f1061455b57610100808354040283529160200191614586565b820191906000526020600020905b81548152906001019060200180831161456957829003601f168201915b50505050506040518060400160405280600181526020017f32000000000000000000000000000000000000000000000000000000000000008152506145c9614eb2565b614eb6565b73ffffffffffffffffffffffffffffffffffffffff8084166000908152600a602090815260408083209386168352929052205461360190849084906146139085614618565b613fa3565b60008282018381101561468c57604080517f08c379a000000000000000000000000000000000000000000000000000000000815260206004820152601b60248201527f536166654d6174683a206164646974696f6e206f766572666c6f770000000000604482015290519081900360640190fd5b9392505050565b806146a6576146a182614365565b6146ef565b73ffffffffffffffffffffffffffffffffffffffff82166000908152600960205260409020547f8000000000000000000000000000000000000000000000000000000000000000175b73ffffffffffffffffffffffffffffffffffffffff90921660009081526009602052604090209190915550565b612c028585848487604051602001808481526020018381526020018260ff1660f81b81526001019350505050604051602081830303815290604052614c2a565b73ffffffffffffffffffffffffffffffffffffffff861633146147ca576040517f08c379a0000000000000000000000000000000000000000000000000000000008152600401808060200182810382526025815260200180615ac86025913960400191505060405180910390fd5b6147d687838686614f2a565b604080517fd099cc98ef71107a616c4f0f941f04c322d8e254fe26b3c6668db87aae413de860208083019190915273ffffffffffffffffffffffffffffffffffffffff808b1683850152891660608301526080820188905260a0820187905260c0820186905260e080830186905283518084039091018152610100909201909252805191012061486890889083614fea565b6148728783615168565b6138d1878787614123565b7fffffffffffffffffffffffffffffffffffffffffffffffffffffffffffffffff8214806148ab5750428210155b61491657604080517f08c379a000000000000000000000000000000000000000000000000000000000815260206004820152601e60248201527f46696174546f6b656e56323a207065726d697420697320657870697265640000604482015290519081900360640190fd5b60006149be6149236144d9565b73ffffffffffffffffffffffffffffffffffffffff80891660008181526011602090815260409182902080546001810190915582517f6e71edae12b1b97f4d1f60370fef10105fa2faae0126114a169c64845d6126c98184015280840194909452938b166060840152608083018a905260a083019390935260c08083018990528151808403909101815260e0909201905280519101206151ed565b905073__$715109b5d747ea58b675c6ea3f0dba8c60$__636ccea6528783856040518463ffffffff1660e01b8152600401808473ffffffffffffffffffffffffffffffffffffffff16815260200183815260200180602001828103825283818151815260200191508051906020019080838360005b83811015614a4b578181015183820152602001614a33565b50505050905090810190601f168015614a785780820380516001836020036101000a031916815260200191505b5094505050505060206040518083038186803b158015614a9757600080fd5b505af4158015614aab573d6000803e3d6000fd5b505050506040513d6020811015614ac157600080fd5b5051614b2e57604080517f08c379a000000000000000000000000000000000000000000000000000000000815260206004820152601a60248201527f454950323631323a20696e76616c6964207369676e6174757265000000000000604482015290519081900360640190fd5b614b39868686613fa3565b505050505050565b613601838361461384604051806060016040528060258152602001615cac6025913973ffffffffffffffffffffffffffffffffffffffff808a166000908152600a60209081526040808320938c16835292905220549190615227565b6040805173ffffffffffffffffffffffffffffffffffffffff8416602482015260448082018490528251808303909101815260649091019091526020810180517bffffffffffffffffffffffffffffffffffffffffffffffffffffffff167fa9059cbb000000000000000000000000000000000000000000000000000000001790526136019084906152d8565b614c3483836153b0565b614cae837f158b0a9edf7a828aad02f63cd515c68ef2f50ba807396f6d12842833a159742960001b8585604051602001808481526020018373ffffffffffffffffffffffffffffffffffffffff16815260200182815260200193505050506040516020818303038152906040528051906020012083614fea565b73ffffffffffffffffffffffffffffffffffffffff8316600081815260106020908152604080832086845290915280822080547fffffffffffffffffffffffffffffffffffffffffffffffffffffffffffffff00166001179055518492917f1cdd46ff242716cdaa72d159d339a485b3438398348d68f09d7c8c0a59353d8191a3505050565b614d4087838686614f2a565b604080517f7c7c6cdb67a18743f49ec6fa9b35f50d52ed05cbed4cc592e13b44501c1a226760208083019190915273ffffffffffffffffffffffffffffffffffffffff808b1683850152891660608301526080820188905260a0820187905260c0820186905260e080830186905283518084039091018152610100909201909252805191012061486890889083614fea565b6138d187878787868689604051602001808481526020018381526020018260ff1660f81b8152600101935050505060405160208183030381529060405261487d565b600046614e22848483614eb6565b949350505050565b612edd89898989898988888b604051602001808481526020018381526020018260ff1660f81b81526001019350505050604051602081830303815290604052614d34565b612edd89898989898988888b604051602001808481526020018381526020018260ff1660f81b8152600101935050505060405160208183030381529060405261475c565b4690565b8251602093840120825192840192909220604080517f8b73c3c69bb8fe3d512ecc4cf759cc79239f7b179b0ffacaa9a75d522b39400f8187015280820194909452606084019190915260808301919091523060a0808401919091528151808403909101815260c09092019052805191012090565b814211614f82576040517f08c379a000000000000000000000000000000000000000000000000000000000815260040180806020018281038252602b8152602001806157d3602b913960400191505060405180910390fd5b804210614fda576040517f08c379a0000000000000000000000000000000000000000000000000000000008152600401808060200182810382526025815260200180615c876025913960400191505060405180910390fd5b614fe484846153b0565b50505050565b73__$715109b5d747ea58b675c6ea3f0dba8c60$__636ccea652846150166150106144d9565b866151ed565b846040518463ffffffff1660e01b8152600401808473ffffffffffffffffffffffffffffffffffffffff16815260200183815260200180602001828103825283818151815260200191508051906020019080838360005b8381101561508557818101518382015260200161506d565b50505050905090810190601f1680156150b25780820380516001836020036101000a031916815260200191505b5094505050505060206040518083038186803b1580156150d157600080fd5b505af41580156150e5573d6000803e3d6000fd5b505050506040513d60208110156150fb57600080fd5b505161360157604080517f08c379a000000000000000000000000000000000000000000000000000000000815260206004820152601e60248201527f46696174546f6b656e56323a20696e76616c6964207369676e61747572650000604482015290519081900360640190fd5b73ffffffffffffffffffffffffffffffffffffffff8216600081815260106020908152604080832085845290915280822080547fffffffffffffffffffffffffffffffffffffffffffffffffffffffffffffff00166001179055518392917f98de503528ee59b575ef0c0a2576a82497bfc029a5685b209e9ec333479b10a591a35050565b6040517f19010000000000000000000000000000000000000000000000000000000000008152600281019290925260228201526042902090565b600081848411156152d0576040517f08c379a00000000000000000000000000000000000000000000000000000000081526004018080602001828103825283818151815260200191508051906020019080838360005b8381101561529557818101518382015260200161527d565b50505050905090810190601f1680156152c25780820380516001836020036101000a031916815260200191505b509250505060405180910390fd5b505050900390565b606061533a826040518060400160405280602081526020017f5361666545524332303a206c6f772d6c6576656c2063616c6c206661696c65648152508573ffffffffffffffffffffffffffffffffffffffff1661543a9092919063ffffffff16565b8051909150156136015780806020019051602081101561535957600080fd5b5051613601576040517f08c379a000000000000000000000000000000000000000000000000000000000815260040180806020018281038252602a815260200180615bb0602a913960400191505060405180910390fd5b73ffffffffffffffffffffffffffffffffffffffff8216600090815260106020908152604080832084845290915290205460ff1615611b1e576040517f08c379a000000000000000000000000000000000000000000000000000000000815260040180806020018281038252602e815260200180615c02602e913960400191505060405180910390fd5b6060614e2284846000858561544e856155a5565b6154b957604080517f08c379a000000000000000000000000000000000000000000000000000000000815260206004820152601d60248201527f416464726573733a2063616c6c20746f206e6f6e2d636f6e7472616374000000604482015290519081900360640190fd5b600060608673ffffffffffffffffffffffffffffffffffffffff1685876040518082805190602001908083835b6020831061552357805182527fffffffffffffffffffffffffffffffffffffffffffffffffffffffffffffffe090920191602091820191016154e6565b6001836020036101000a03801982511681845116808217855250505050505090500191505060006040518083038185875af1925050503d8060008114615585576040519150601f19603f3d011682016040523d82523d6000602084013e61558a565b606091505b509150915061559a8282866155ab565b979650505050505050565b3b151590565b606083156155ba57508161468c565b8251156155ca5782518084602001fd5b6040517f08c379a000000000000000000000000000000000000000000000000000000000815260206004820181815284516024840152845185939192839260440191908501908083836000831561529557818101518382015260200161527d565b828054600181600116156101000203166002900490600052602060002090601f016020900481019282601f1061566c57805160ff1916838001178555615699565b82800160010185558215615699579182015b8281111561569957825182559160200191906001019061567e565b506156a5929150615735565b5090565b828054600181600116156101000203166002900490600052602060002090601f016020900481019282601f10615708578280017fffffffffffffffffffffffffffffffffffffffffffffffffffffffffffffff00823516178555615699565b82800160010185558215615699579182015b8281111561569957823582559160200191906001019061571a565b5b808211156156a5576000815560010161573656fe46696174546f6b656e56325f323a20426c61636b6c697374696e672070726576696f75736c7920756e626c61636b6c6973746564206163636f756e742145524332303a207472616e7366657220746f20746865207a65726f20616464726573735061757361626c653a206e65772070617573657220697320746865207a65726f206164647265737346696174546f6b656e56323a20617574686f72697a6174696f6e206973206e6f74207965742076616c696446696174546f6b656e3a206275726e20616d6f756e74206e6f742067726561746572207468616e203046696174546f6b656e3a206d696e7420746f20746865207a65726f20616464726573734f776e61626c653a206e6577206f776e657220697320746865207a65726f206164647265737345524332303a20617070726f766520746f20746865207a65726f206164647265737346696174546f6b656e3a206e65772070617573657220697320746865207a65726f2061646472657373526573637561626c653a206e6577207265736375657220697320746865207a65726f206164647265737346696174546f6b656e56325f323a204163636f756e7420697320626c61636b6c697374656446696174546f6b656e3a206d696e7420616d6f756e74206e6f742067726561746572207468616e203045524332303a207472616e7366657220616d6f756e7420657863656564732062616c616e636546696174546f6b656e3a2063616c6c6572206973206e6f7420746865206d61737465724d696e746572426c61636b6c69737461626c653a2063616c6c6572206973206e6f742074686520626c61636b6c697374657246696174546f6b656e56325f323a2042616c616e636520657863656564732028325e323535202d20312946696174546f6b656e3a206275726e20616d6f756e7420657863656564732062616c616e636546696174546f6b656e3a2063616c6c6572206973206e6f742061206d696e74657246696174546f6b656e3a206e6577206d61737465724d696e74657220697320746865207a65726f2061646472657373526573637561626c653a2063616c6c6572206973206e6f7420746865207265736375657245524332303a207472616e7366657220616d6f756e74206578636565647320616c6c6f77616e636546696174546f6b656e3a206e657720626c61636b6c697374657220697320746865207a65726f206164647265737346696174546f6b656e56323a2063616c6c6572206d7573742062652074686520706179656546696174546f6b656e3a20636f6e747261637420697320616c726561647920696e697469616c697a656445524332303a207472616e736665722066726f6d20746865207a65726f206164647265737345524332303a20617070726f76652066726f6d20746865207a65726f206164647265737346696174546f6b656e3a206d696e7420616d6f756e742065786365656473206d696e746572416c6c6f77616e63655061757361626c653a2063616c6c6572206973206e6f7420746865207061757365725361666545524332303a204552433230206f7065726174696f6e20646964206e6f74207375636365656446696174546f6b656e3a206e6577206f776e657220697320746865207a65726f206164647265737346696174546f6b656e56323a20617574686f72697a6174696f6e2069732075736564206f722063616e63656c6564426c61636b6c69737461626c653a206e657720626c61636b6c697374657220697320746865207a65726f2061646472657373426c61636b6c69737461626c653a206163636f756e7420697320626c61636b6c697374656446696174546f6b656e56323a20617574686f72697a6174696f6e206973206578706972656445524332303a2064656372656173656420616c6c6f77616e63652062656c6f77207a65726fa2646970667358221220a6bfb621559a134ece7c92a380f7b0845c94273f917f9e56916224e6082bb6cb64736f6c634300060c0033","linkReferences":{"contracts/util/SignatureChecker.sol":{"SignatureChecker":[{"start":18985,"length":20},{"start":20563,"length":20}]}}},"methodIdentifiers":{"CANCEL_AUTHORIZATION_TYPEHASH()":"d9169487","DOMAIN_SEPARATOR()":"3644e515","PERMIT_TYPEHASH()":"30adf81f","RECEIVE_WITH_AUTHORIZATION_TYPEHASH()":"7f2eecc3","TRANSFER_WITH_AUTHORIZATION_TYPEHASH()":"a0cc6a68","allowance(address,address)":"dd62ed3e","approve(address,uint256)":"095ea7b3","authorizationState(address,bytes32)":"e94a0102","balanceOf(address)":"70a08231","blacklist(address)":"f9f92be4","blacklister()":"bd102430","burn(uint256)":"42966c68","cancelAuthorization(address,bytes32,bytes)":"b7b72899","cancelAuthorization(address,bytes32,uint8,bytes32,bytes32)":"5a049a70","configureMinter(address,uint256)":"4e44d956","currency()":"e5a6b10f","decimals()":"313ce567","decreaseAllowance(address,uint256)":"a457c2d7","getBalanceAndBlacklistStates(address)":"b31ad280","increaseAllowance(address,uint256)":"39509351","initialize(string,string,string,uint8,address,address,address,address)":"3357162b","initializeV2(string)":"d608ea64","initializeV2_1(address)":"2fc81e09","initializeV2_2(address[],string)":"430239b4","internal_balanceOf(address)":"a6241aaf","internal_isBlacklisted(address)":"09bedf12","internal_setBalance(address,uint256)":"31c23fc7","internal_setBlacklistState(address,bool)":"42fadd4e","isBlacklisted(address)":"fe575a87","isMinter(address)":"aa271e1a","masterMinter()":"35d99f35","mint(address,uint256)":"40c10f19","minterAllowance(address)":"8a6db9c3","name()":"06fdde03","nonces(address)":"7ecebe00","owner()":"8da5cb5b","pause()":"8456cb59","paused()":"5c975abb","pauser()":"9fd0506d","permit(address,address,uint256,uint256,bytes)":"9fd5a6cf","permit(address,address,uint256,uint256,uint8,bytes32,bytes32)":"d505accf","receiveWithAuthorization(address,address,uint256,uint256,uint256,bytes32,bytes)":"88b7ab63","receiveWithAuthorization(address,address,uint256,uint256,uint256,bytes32,uint8,bytes32,bytes32)":"ef55bec6","removeMinter(address)":"3092afd5","rescueERC20(address,address,uint256)":"b2118a8d","rescuer()":"38a63183","setBalanceAndBlacklistStates(address,uint256)":"7f9c8201","symbol()":"95d89b41","totalSupply()":"18160ddd","transfer(address,uint256)":"a9059cbb","transferFrom(address,address,uint256)":"23b872dd","transferOwnership(address)":"f2fde38b","transferWithAuthorization(address,address,uint256,uint256,uint256,bytes32,bytes)":"cf092995","transferWithAuthorization(address,address,uint256,uint256,uint256,bytes32,uint8,bytes32,bytes32)":"e3ee160e","unBlacklist(address)":"1a895266","unpause()":"3f4ba83a","updateBlacklister(address)":"ad38bf22","updateMasterMinter(address)":"aa20e1e4","updatePauser(address)":"554bab3c","updateRescuer(address)":"2ab60045","version()":"54fd4d50"},"id":17}