{"abi":[{"type":"function","name":"makeDomainSeparator","inputs":[{"name":"name","type":"string","internalType":"string"},{"name":"version","type":"string","internalType":"string"}],"outputs":[{"name":"","type":"bytes32","internalType":"bytes32"}],"stateMutability":"view"}],"bytecode":{"object":"0x608060405234801561001057600080fd5b50610242806100206000396000f3fe608060405234801561001057600080fd5b506004361061002b5760003560e01c80633be2828014610030575b600080fd5b6100f26004803603604081101561004657600080fd5b81019060208101813564010000000081111561006157600080fd5b82018360208201111561007357600080fd5b8035906020019184600183028401116401000000008311171561009557600080fd5b9193909290916020810190356401000000008111156100b357600080fd5b8201836020820111156100c557600080fd5b803590602001918460018302840111640100000000831117156100e757600080fd5b509092509050610104565b60408051918252519081900360200190f35b600061017985858080601f01602080910402602001604051908101604052809392919081815260200183838082843760009201919091525050604080516020601f8901819004810282018101909252878152925087915086908190840183828082843760009201919091525061018292505050565b95945050505050565b600046610190848483610198565b949350505050565b8251602093840120825192840192909220604080517f8b73c3c69bb8fe3d512ecc4cf759cc79239f7b179b0ffacaa9a75d522b39400f8187015280820194909452606084019190915260808301919091523060a0808401919091528151808403909101815260c0909201905280519101209056fea26469706673582212202d1f07e1b6d3e42654021b9a2aa3d33836c843d1cde435348de06b483e7b5ef264736f6c634300060c0033","linkReferences":{}},"methodIdentifiers":{"makeDomainSeparator(string,string)":"3be28280"},"id":14}