{
  "_format": "hh-sol-artifact-1",
  "contractName": "MockERC20",
  "sourceName": "forge-std/mocks/MockERC20.sol",
  "abi": [
    {
      "anonymous": false,
      "inputs": [
        {
          "indexed": true,
          "internalType": "address",
          "name": "owner",
          "type": "address"
        },
        {
          "indexed": true,
          "internalType": "address",
          "name": "spender",
          "type": "address"
        },
        {
          "indexed": false,
          "internalType": "uint256",
          "name": "amount",
          "type": "uint256"
        }
      ],
      "name": "Approval",
      "type": "event"
    },
    {
      "anonymous": false,
      "inputs": [
        {
          "indexed": true,
          "internalType": "address",
          "name": "from",
          "type": "address"
        },
        {
          "indexed": true,
          "internalType": "address",
          "name": "to",
          "type": "address"
        },
        {
          "indexed": false,
          "internalType": "uint256",
          "name": "amount",
          "type": "uint256"
        }
      ],
      "name": "Transfer",
      "type": "event"
    },
    {
      "inputs": [],
      "name": "DOMAIN_SEPARATOR",
      "outputs": [
        {
          "internalType": "bytes32",
          "name": "",
          "type": "bytes32"
        }
      ],
      "stateMutability": "view",
      "type": "function"
    },
    {
      "inputs": [
        {
          "internalType": "address",
          "name": "",
          "type": "address"
        },
        {
          "internalType": "address",
          "name": "",
          "type": "address"
        }
      ],
      "name": "allowance",
      "outputs": [
        {
          "internalType": "uint256",
          "name": "",
          "type": "uint256"
        }
      ],
      "stateMutability": "view",
      "type": "function"
    },
    {
      "inputs": [
        {
          "internalType": "address",
          "name": "spender",
          "type": "address"
        },
        {
          "internalType": "uint256",
          "name": "amount",
          "type": "uint256"
        }
      ],
      "name": "approve",
      "outputs": [
        {
          "internalType": "bool",
          "name": "",
          "type": "bool"
        }
      ],
      "stateMutability": "nonpayable",
      "type": "function"
    },
    {
      "inputs": [
        {
          "internalType": "address",
          "name": "",
          "type": "address"
        }
      ],
      "name": "balanceOf",
      "outputs": [
        {
          "internalType": "uint256",
          "name": "",
          "type": "uint256"
        }
      ],
      "stateMutability": "view",
      "type": "function"
    },
    {
      "inputs": [],
      "name": "decimals",
      "outputs": [
        {
          "internalType": "uint8",
          "name": "",
          "type": "uint8"
        }
      ],
      "stateMutability": "view",
      "type": "function"
    },
    {
      "inputs": [
        {
          "internalType": "string",
          "name": "_name",
          "type": "string"
        },
        {
          "internalType": "string",
          "name": "_symbol",
          "type": "string"
        },
        {
          "internalType": "uint8",
          "name": "_decimals",
          "type": "uint8"
        }
      ],
      "name": "initialize",
      "outputs": [],
      "stateMutability": "nonpayable",
      "type": "function"
    },
    {
      "inputs": [],
      "name": "name",
      "outputs": [
        {
          "internalType": "string",
          "name": "",
          "type": "string"
        }
      ],
      "stateMutability": "view",
      "type": "function"
    },
    {
      "inputs": [
        {
          "internalType": "address",
          "name": "",
          "type": "address"
        }
      ],
      "name": "nonces",
      "outputs": [
        {
          "internalType": "uint256",
          "name": "",
          "type": "uint256"
        }
      ],
      "stateMutability": "view",
      "type": "function"
    },
    {
      "inputs": [
        {
          "internalType": "address",
          "name": "owner",
          "type": "address"
        },
        {
          "internalType": "address",
          "name": "spender",
          "type": "address"
        },
        {
          "internalType": "uint256",
          "name": "value",
          "type": "uint256"
        },
        {
          "internalType": "uint256",
          "name": "deadline",
          "type": "uint256"
        },
        {
          "internalType": "uint8",
          "name": "v",
          "type": "uint8"
        },
        {
          "internalType": "bytes32",
          "name": "r",
          "type": "bytes32"
        },
        {
          "internalType": "bytes32",
          "name": "s",
          "type": "bytes32"
        }
      ],
      "name": "permit",
      "outputs": [],
      "stateMutability": "nonpayable",
      "type": "function"
    },
    {
      "inputs": [],
      "name": "symbol",
      "outputs": [
        {
          "internalType": "string",
          "name": "",
          "type": "string"
        }
      ],
      "stateMutability": "view",
      "type": "function"
    },
    {
      "inputs": [],
      "name": "totalSupply",
      "outputs": [
        {
          "internalType": "uint256",
          "name": "",
          "type": "uint256"
        }
      ],
      "stateMutability": "view",
      "type": "function"
    },
    {
      "inputs": [
        {
          "internalType": "address",
          "name": "to",
          "type": "address"
        },
        {
          "internalType": "uint256",
          "name": "amount",
          "type": "uint256"
        }
      ],
      "name": "transfer",
      "outputs": [
        {
          "internalType": "bool",
          "name": "",
          "type": "bool"
        }
      ],
      "stateMutability": "nonpayable",
      "type": "function"
    },
    {
      "inputs": [
        {
          "internalType": "address",
          "name": "from",
          "type": "address"
        },
        {
          "internalType": "address",
          "name": "to",
          "type": "address"
        },
        {
          "internalType": "uint256",
          "name": "amount",
          "type": "uint256"
        }
      ],
      "name": "transferFrom",
      "outputs": [
        {
          "internalType": "bool",
          "name": "",
          "type": "bool"
        }
      ],
      "stateMutability": "nonpayable",
      "type": "function"
    }
  ],
  "bytecode": "0x608060405234801561001057600080fd5b50611010806100206000396000f3fe608060405234801561001057600080fd5b50600436106100df5760003560e01c80633644e5151161008c57806395d89b411161006657806395d89b41146103cb578063a9059cbb146103d3578063d505accf1461040c578063dd62ed3e1461046a576100df565b80633644e5151461035d57806370a08231146103655780637ecebe0014610398576100df565b806318160ddd116100bd57806318160ddd146102e257806323b872dd146102fc578063313ce5671461033f576100df565b806306fdde03146100e4578063095ea7b3146101615780631624f6c6146101ae575b600080fd5b6100ec6104a5565b6040805160208082528351818301528351919283929083019185019080838360005b8381101561012657818101518382015260200161010e565b50505050905090810190601f1680156101535780820380516001836020036101000a031916815260200191505b509250505060405180910390f35b61019a6004803603604081101561017757600080fd5b5073ffffffffffffffffffffffffffffffffffffffff8135169060200135610551565b604080519115158252519081900360200190f35b6102e0600480360360608110156101c457600080fd5b8101906020810181356401000000008111156101df57600080fd5b8201836020820111156101f157600080fd5b8035906020019184600183028401116401000000008311171561021357600080fd5b91908080601f016020809104026020016040519081016040528093929190818152602001838380828437600092019190915250929594936020810193503591505064010000000081111561026657600080fd5b82018360208201111561027857600080fd5b8035906020019184600183028401116401000000008311171561029a57600080fd5b91908080601f0160208091040260200160405190810160405280939291908181526020018383808284376000920191909152509295505050903560ff1691506105c49050565b005b6102ea6106d1565b60408051918252519081900360200190f35b61019a6004803603606081101561031257600080fd5b5073ffffffffffffffffffffffffffffffffffffffff8135811691602081013590911690604001356106d7565b610347610846565b6040805160ff9092168252519081900360200190f35b6102ea61084f565b6102ea6004803603602081101561037b57600080fd5b503573ffffffffffffffffffffffffffffffffffffffff16610877565b6102ea600480360360208110156103ae57600080fd5b503573ffffffffffffffffffffffffffffffffffffffff16610889565b6100ec61089b565b61019a600480360360408110156103e957600080fd5b5073ffffffffffffffffffffffffffffffffffffffff8135169060200135610913565b6102e0600480360360e081101561042257600080fd5b5073ffffffffffffffffffffffffffffffffffffffff813581169160208101359091169060408101359060608101359060ff6080820135169060a08101359060c001356109d1565b6102ea6004803603604081101561048057600080fd5b5073ffffffffffffffffffffffffffffffffffffffff81358116916020013516610d07565b6000805460408051602060026001851615610100027fffffffffffffffffffffffffffffffffffffffffffffffffffffffffffffffff0190941693909304601f810184900484028201840190925281815292918301828280156105495780601f1061051e57610100808354040283529160200191610549565b820191906000526020600020905b81548152906001019060200180831161052c57829003601f168201915b505050505081565b33600081815260056020908152604080832073ffffffffffffffffffffffffffffffffffffffff8716808552908352818420869055815186815291519394909390927f8c5be1e5ebec7d5bd14f71427d1e84f3dd0314c0f7b2291e5b200ac8c7c3b925928290030190a350600192915050565b60095460ff161561063657604080517f08c379a000000000000000000000000000000000000000000000000000000000815260206004820152601360248201527f414c52454144595f494e495449414c495a454400000000000000000000000000604482015290519081900360640190fd5b8251610649906000906020860190610f47565b50815161065d906001906020850190610f47565b50600280547fffffffffffffffffffffffffffffffffffffffffffffffffffffffffffffff001660ff8316179055610693610d24565b60065561069e610d3d565b6007555050600980547fffffffffffffffffffffffffffffffffffffffffffffffffffffffffffffff0016600117905550565b60035481565b73ffffffffffffffffffffffffffffffffffffffff831660009081526005602090815260408083203384529091528120547fffffffffffffffffffffffffffffffffffffffffffffffffffffffffffffffff811461076b576107398184610e51565b73ffffffffffffffffffffffffffffffffffffffff861660009081526005602090815260408083203384529091529020555b73ffffffffffffffffffffffffffffffffffffffff851660009081526004602052604090205461079b9084610e51565b73ffffffffffffffffffffffffffffffffffffffff80871660009081526004602052604080822093909355908616815220546107d79084610ec8565b73ffffffffffffffffffffffffffffffffffffffff80861660008181526004602090815260409182902094909455805187815290519193928916927fddf252ad1be2c89b69c2b068fc378daa952ba7f163c4a11628f55a4df523b3ef92918290030190a3506001949350505050565b60025460ff1681565b600060065461085c610d24565b1461086e57610869610d3d565b610872565b6007545b905090565b60046020526000908152604090205481565b60086020526000908152604090205481565b60018054604080516020600284861615610100027fffffffffffffffffffffffffffffffffffffffffffffffffffffffffffffffff0190941693909304601f810184900484028201840190925281815292918301828280156105495780601f1061051e57610100808354040283529160200191610549565b3360009081526004602052604081205461092d9083610e51565b336000908152600460205260408082209290925573ffffffffffffffffffffffffffffffffffffffff8516815220546109669083610ec8565b73ffffffffffffffffffffffffffffffffffffffff84166000818152600460209081526040918290209390935580518581529051919233927fddf252ad1be2c89b69c2b068fc378daa952ba7f163c4a11628f55a4df523b3ef9281900390910190a350600192915050565b42841015610a4057604080517f08c379a000000000000000000000000000000000000000000000000000000000815260206004820152601760248201527f5045524d49545f444541444c494e455f45585049524544000000000000000000604482015290519081900360640190fd5b60006001610a4c61084f565b73ffffffffffffffffffffffffffffffffffffffff808b16600081815260086020908152604080832080546001810190915581517f6e71edae12b1b97f4d1f60370fef10105fa2faae0126114a169c64845d6126c98185015280830195909552948e166060850152608084018d905260a084019490945260c08084018c90528451808503909101815260e0840185528051908201207f1901000000000000000000000000000000000000000000000000000000000000610100850152610102840195909552610122808401959095528351808403909501855261014283018085528551958201959095209190945261016282018084525260ff88166101828201526101a281018790526101c2810186905290516101e280830193927fffffffffffffffffffffffffffffffffffffffffffffffffffffffffffffffe08301929081900390910190855afa158015610ba7573d6000803e3d6000fd5b50506040517fffffffffffffffffffffffffffffffffffffffffffffffffffffffffffffffe0015191505073ffffffffffffffffffffffffffffffffffffffff811615801590610c2257508773ffffffffffffffffffffffffffffffffffffffff168173ffffffffffffffffffffffffffffffffffffffff16145b610c8d57604080517f08c379a000000000000000000000000000000000000000000000000000000000815260206004820152600e60248201527f494e56414c49445f5349474e4552000000000000000000000000000000000000604482015290519081900360640190fd5b73ffffffffffffffffffffffffffffffffffffffff80821660009081526005602090815260408083208b8516808552908352928190208a905580518a8152905192938c16927f8c5be1e5ebec7d5bd14f71427d1e84f3dd0314c0f7b2291e5b200ac8c7c3b925929181900390910190a35050505050505050565b600560209081526000928352604080842090915290825290205481565b6000610f4380610d3663ffffffff8216565b9250505090565b60007f8b73c3c69bb8fe3d512ecc4cf759cc79239f7b179b0ffacaa9a75d522b39400f60006040518082805460018160011615610100020316600290048015610dbd5780601f10610d9b576101008083540402835291820191610dbd565b820191906000526020600020905b815481529060010190602001808311610da9575b505091505060405180910390207fc89efdaa54c0f20c7adf612882df0950f5a951637e0307cdcb4c672f298b8bc6610df3610d24565b30604051602001808681526020018581526020018481526020018381526020018273ffffffffffffffffffffffffffffffffffffffff1681526020019550505050505060405160208183030381529060405280519060200120905090565b600081831015610ec257604080517f08c379a000000000000000000000000000000000000000000000000000000000815260206004820152601c60248201527f45524332303a207375627472616374696f6e20756e646572666c6f7700000000604482015290519081900360640190fd5b50900390565b600082820183811015610f3c57604080517f08c379a000000000000000000000000000000000000000000000000000000000815260206004820152601860248201527f45524332303a206164646974696f6e206f766572666c6f770000000000000000604482015290519081900360640190fd5b9392505050565b4690565b828054600181600116156101000203166002900490600052602060002090601f016020900481019282601f10610f8857805160ff1916838001178555610fb5565b82800160010185558215610fb5579182015b82811115610fb5578251825591602001919060010190610f9a565b50610fc1929150610fc5565b5090565b5b80821115610fc15760008155600101610fc656fea2646970667358221220860cdd550a52eb5afae881631f65a16d3e66612628cde07e248a05d236b1f96c64736f6c634300060c0033",
  "linkReferences": {},
  "deployedLinkReferences": {}
}