{"abi":[{"type":"function","name":"DOMAIN_SEPARATOR","inputs":[],"outputs":[{"name":"","type":"bytes32","internalType":"bytes32"}],"stateMutability":"view"}],"bytecode":{"object":"0x6080604052348015600f57600080fd5b50608e8061001e6000396000f3fe6080604052348015600f57600080fd5b506004361060285760003560e01c80633644e51514602d575b600080fd5b60336045565b60408051918252519081900360200190f35b6000604d6052565b905090565b6000549056fea26469706673582212201e001a3d59d6efe69a7a4b9d5f5124b57149016a5eeb824274afa557fe77b12264736f6c634300060c0033","linkReferences":{}},"methodIdentifiers":{"DOMAIN_SEPARATOR()":"3644e515"},"id":42}